{"abi":[{"type":"constructor","inputs":[{"name":"_autheoToken","type":"address","internalType":"address"}],"stateMutability":"nonpayable"},{"type":"fallback","stateMutability":"payable"},{"type":"receive","stateMutability":"payable"},{"type":"function","name":"Autheo","inputs":[],"outputs":[{"name":"","type":"address","internalType":"contract IERC20"}],"stateMutability":"view"},{"type":"function","name":"BUG_BOUNTY_ALLOCATION_PERCENTAGE","inputs":[],"outputs":[{"name":"","type":"uint256","internalType":"uint256"}],"stateMutability":"view"},{"type":"function","name":"DAPP_REWARD_ALLOCATION_PERCENTAGE","inputs":[],"outputs":[{"name":"","type":"uint256","internalType":"uint256"}],"stateMutability":"view"},{"type":"function","name":"DEVELOPER_DEPLOYMENT_REWARD","inputs":[],"outputs":[{"name":"","type":"uint256","internalType":"uint256"}],"stateMutability":"view"},{"type":"function","name":"DEVELOPER_REWARD_ALLOCATION_PERCENTAGE","inputs":[],"outputs":[{"name":"","type":"uint256","internalType":"uint256"}],"stateMutability":"view"},{"type":"function","name":"HIGH_PERCENTAGE","inputs":[],"outputs":[{"name":"","type":"uint256","internalType":"uint256"}],"stateMutability":"view"},{"type":"function","name":"LOW_PERCENTAGE","inputs":[],"outputs":[{"name":"","type":"uint256","internalType":"uint256"}],"stateMutability":"view"},{"type":"function","name":"MEDIUM_PERCENTAGE","inputs":[],"outputs":[{"name":"","type":"uint256","internalType":"uint256"}],"stateMutability":"view"},{"type":"function","name":"MONTHLY_DAPP_REWARD","inputs":[],"outputs":[{"name":"","type":"uint256","internalType":"uint256"}],"stateMutability":"view"},{"type":"function","name":"MONTHLY_UPTIME_BONUS","inputs":[],"outputs":[{"name":"","type":"uint256","internalType":"uint256"}],"stateMutability":"view"},{"type":"function","name":"allUsers","inputs":[{"name":"","type":"uint256","internalType":"uint256"}],"outputs":[{"name":"","type":"address","internalType":"address"}],"stateMutability":"view"},{"type":"function","name":"bugBountyCriticality","inputs":[{"name":"","type":"address","internalType":"address"},{"name":"","type":"uint256","internalType":"uint256"}],"outputs":[{"name":"","type":"uint8","internalType":"enum AutheoRewardDistribution.BugCriticality"}],"stateMutability":"view"},{"type":"function","name":"calculateRemainingClaimedAmount","inputs":[],"outputs":[{"name":"","type":"uint256","internalType":"uint256"}],"stateMutability":"view"},{"type":"function","name":"calculateRemainingContractDeploymentReward","inputs":[],"outputs":[{"name":"","type":"uint256","internalType":"uint256"}],"stateMutability":"view"},{"type":"function","name":"calculateRemainingDappRewards","inputs":[],"outputs":[{"name":"","type":"uint256","internalType":"uint256"}],"stateMutability":"view"},{"type":"function","name":"claimPerContractDeployer","inputs":[],"outputs":[{"name":"","type":"uint256","internalType":"uint256"}],"stateMutability":"view"},{"type":"function","name":"claimPerDappUser","inputs":[],"outputs":[{"name":"","type":"uint256","internalType":"uint256"}],"stateMutability":"view"},{"type":"function","name":"claimReward","inputs":[{"name":"_contractDeploymentClaim","type":"bool","internalType":"bool"},{"name":"_dappUserClaim","type":"bool","internalType":"bool"},{"name":"_bugBountyClaim","type":"bool","internalType":"bool"}],"outputs":[],"stateMutability":"nonpayable"},{"type":"function","name":"contractDeployerCurrentId","inputs":[],"outputs":[{"name":"","type":"uint256","internalType":"uint256"}],"stateMutability":"view"},{"type":"function","name":"contractDeploymentRegistrationTime","inputs":[{"name":"","type":"address","internalType":"address"}],"outputs":[{"name":"","type":"uint256","internalType":"uint256"}],"stateMutability":"view"},{"type":"function","name":"dappUserCurrentId","inputs":[],"outputs":[{"name":"","type":"uint256","internalType":"uint256"}],"stateMutability":"view"},{"type":"function","name":"emergencyWithdraw","inputs":[{"name":"token","type":"address","internalType":"address"}],"outputs":[],"stateMutability":"nonpayable"},{"type":"function","name":"getAllUsers","inputs":[],"outputs":[{"name":"","type":"address[]","internalType":"address[]"}],"stateMutability":"view"},{"type":"function","name":"getBalance","inputs":[],"outputs":[{"name":"","type":"uint256","internalType":"uint256"}],"stateMutability":"view"},{"type":"function","name":"getCurrentDeploymentMultiplier","inputs":[{"name":"_user","type":"address","internalType":"address"}],"outputs":[{"name":"","type":"uint256","internalType":"uint256"}],"stateMutability":"view"},{"type":"function","name":"getWhitelistedContractDeploymentUsers","inputs":[],"outputs":[{"name":"","type":"address[]","internalType":"address[]"}],"stateMutability":"view"},{"type":"function","name":"getWhitelistedDappRewardUsers","inputs":[],"outputs":[{"name":"","type":"address[]","internalType":"address[]"}],"stateMutability":"view"},{"type":"function","name":"hasGoodUptime","inputs":[{"name":"","type":"address","internalType":"address"}],"outputs":[{"name":"","type":"bool","internalType":"bool"}],"stateMutability":"view"},{"type":"function","name":"hasReward","inputs":[{"name":"","type":"address","internalType":"address"}],"outputs":[{"name":"","type":"bool","internalType":"bool"}],"stateMutability":"view"},{"type":"function","name":"highBugBountyCurrentId","inputs":[],"outputs":[{"name":"","type":"uint256","internalType":"uint256"}],"stateMutability":"view"},{"type":"function","name":"highBugBountyUsers","inputs":[{"name":"","type":"uint256","internalType":"uint256"}],"outputs":[{"name":"","type":"address","internalType":"address"}],"stateMutability":"view"},{"type":"function","name":"highRewardPerUser","inputs":[],"outputs":[{"name":"","type":"uint256","internalType":"uint256"}],"stateMutability":"view"},{"type":"function","name":"isAuthorized","inputs":[{"name":"","type":"address","internalType":"address"}],"outputs":[{"name":"","type":"bool","internalType":"bool"}],"stateMutability":"view"},{"type":"function","name":"isBugBountyUsersClaimed","inputs":[{"name":"","type":"address","internalType":"address"}],"outputs":[{"name":"","type":"bool","internalType":"bool"}],"stateMutability":"view"},{"type":"function","name":"isContractDeploymentUsersClaimed","inputs":[{"name":"","type":"address","internalType":"address"}],"outputs":[{"name":"","type":"bool","internalType":"bool"}],"stateMutability":"view"},{"type":"function","name":"isDappUsersClaimed","inputs":[{"name":"","type":"address","internalType":"address"}],"outputs":[{"name":"","type":"bool","internalType":"bool"}],"stateMutability":"view"},{"type":"function","name":"isTestnet","inputs":[],"outputs":[{"name":"","type":"bool","internalType":"bool"}],"stateMutability":"view"},{"type":"function","name":"isWhitelistedContractDeploymentUsersForId","inputs":[{"name":"","type":"address","internalType":"address"},{"name":"","type":"uint256","internalType":"uint256"}],"outputs":[{"name":"","type":"bool","internalType":"bool"}],"stateMutability":"view"},{"type":"function","name":"isWhitelistedDappUsers","inputs":[{"name":"","type":"address","internalType":"address"}],"outputs":[{"name":"","type":"bool","internalType":"bool"}],"stateMutability":"view"},{"type":"function","name":"isWhitelistedDappUsersForId","inputs":[{"name":"","type":"address","internalType":"address"},{"name":"","type":"uint256","internalType":"uint256"}],"outputs":[{"name":"","type":"bool","internalType":"bool"}],"stateMutability":"view"},{"type":"function","name":"iswhitelistedContractDeploymentUsers","inputs":[{"name":"","type":"address","internalType":"address"}],"outputs":[{"name":"","type":"bool","internalType":"bool"}],"stateMutability":"view"},{"type":"function","name":"iswhitelistedDappRewardUsers","inputs":[{"name":"","type":"address","internalType":"address"}],"outputs":[{"name":"","type":"bool","internalType":"bool"}],"stateMutability":"view"},{"type":"function","name":"lastContractDeploymentClaim","inputs":[{"name":"","type":"address","internalType":"address"}],"outputs":[{"name":"","type":"uint256","internalType":"uint256"}],"stateMutability":"view"},{"type":"function","name":"lowBugBountyCurrentId","inputs":[],"outputs":[{"name":"","type":"uint256","internalType":"uint256"}],"stateMutability":"view"},{"type":"function","name":"lowBugBountyUsers","inputs":[{"name":"","type":"uint256","internalType":"uint256"}],"outputs":[{"name":"","type":"address","internalType":"address"}],"stateMutability":"view"},{"type":"function","name":"lowRewardPerUser","inputs":[],"outputs":[{"name":"","type":"uint256","internalType":"uint256"}],"stateMutability":"view"},{"type":"function","name":"mediumBugBountyCurrentId","inputs":[],"outputs":[{"name":"","type":"uint256","internalType":"uint256"}],"stateMutability":"view"},{"type":"function","name":"mediumBugBountyUsers","inputs":[{"name":"","type":"uint256","internalType":"uint256"}],"outputs":[{"name":"","type":"address","internalType":"address"}],"stateMutability":"view"},{"type":"function","name":"mediumRewardPerUser","inputs":[],"outputs":[{"name":"","type":"uint256","internalType":"uint256"}],"stateMutability":"view"},{"type":"function","name":"owner","inputs":[],"outputs":[{"name":"","type":"address","internalType":"address"}],"stateMutability":"view"},{"type":"function","name":"pause","inputs":[],"outputs":[],"stateMutability":"nonpayable"},{"type":"function","name":"paused","inputs":[],"outputs":[{"name":"","type":"bool","internalType":"bool"}],"stateMutability":"view"},{"type":"function","name":"registerContractDeploymentUsers","inputs":[{"name":"_contractDeploymentUsers","type":"address[]","internalType":"address[]"}],"outputs":[],"stateMutability":"nonpayable"},{"type":"function","name":"registerDappUsers","inputs":[{"name":"_dappRewardsUsers","type":"address[]","internalType":"address[]"},{"name":"_userUptime","type":"bool[]","internalType":"bool[]"}],"outputs":[],"stateMutability":"nonpayable"},{"type":"function","name":"registerHighBugBountyUsers","inputs":[{"name":"_highBugBountyUsers","type":"address[]","internalType":"address[]"}],"outputs":[],"stateMutability":"nonpayable"},{"type":"function","name":"registerLowBugBountyUsers","inputs":[{"name":"_lowBugBountyUsers","type":"address[]","internalType":"address[]"}],"outputs":[],"stateMutability":"nonpayable"},{"type":"function","name":"registerMediumBugBountyUsers","inputs":[{"name":"_mediumBugBountyUsers","type":"address[]","internalType":"address[]"}],"outputs":[],"stateMutability":"nonpayable"},{"type":"function","name":"renounceOwnership","inputs":[],"outputs":[],"stateMutability":"nonpayable"},{"type":"function","name":"setAuthorized","inputs":[{"name":"_address","type":"address","internalType":"address"},{"name":"_status","type":"bool","internalType":"bool"}],"outputs":[],"stateMutability":"nonpayable"},{"type":"function","name":"setClaimPerContractDeployer","inputs":[{"name":"_claimAmount","type":"uint256","internalType":"uint256"}],"outputs":[],"stateMutability":"nonpayable"},{"type":"function","name":"setClaimPerDappUser","inputs":[{"name":"_claimAmount","type":"uint256","internalType":"uint256"}],"outputs":[],"stateMutability":"nonpayable"},{"type":"function","name":"setTestnetStatus","inputs":[{"name":"_status","type":"bool","internalType":"bool"}],"outputs":[],"stateMutability":"nonpayable"},{"type":"function","name":"totalBugBountyRewardsClaimed","inputs":[],"outputs":[{"name":"","type":"uint256","internalType":"uint256"}],"stateMutability":"view"},{"type":"function","name":"totalContractDeploymentClaimed","inputs":[],"outputs":[{"name":"","type":"uint256","internalType":"uint256"}],"stateMutability":"view"},{"type":"function","name":"totalDappRewardsClaimed","inputs":[],"outputs":[{"name":"","type":"uint256","internalType":"uint256"}],"stateMutability":"view"},{"type":"function","name":"totalDappRewardsIds","inputs":[],"outputs":[{"name":"","type":"uint256","internalType":"uint256"}],"stateMutability":"view"},{"type":"function","name":"totalHighBugBountyUserNumber","inputs":[],"outputs":[{"name":"","type":"uint256","internalType":"uint256"}],"stateMutability":"view"},{"type":"function","name":"totalLowBugBountyUserNumber","inputs":[],"outputs":[{"name":"","type":"uint256","internalType":"uint256"}],"stateMutability":"view"},{"type":"function","name":"totalMediumBugBountyUserNumber","inputs":[],"outputs":[{"name":"","type":"uint256","internalType":"uint256"}],"stateMutability":"view"},{"type":"function","name":"totalSupply","inputs":[],"outputs":[{"name":"","type":"uint256","internalType":"uint256"}],"stateMutability":"view"},{"type":"function","name":"transferOwnership","inputs":[{"name":"newOwner","type":"address","internalType":"address"}],"outputs":[],"stateMutability":"nonpayable"},{"type":"function","name":"unpause","inputs":[],"outputs":[],"stateMutability":"nonpayable"},{"type":"function","name":"whitelistedContractDeploymentUsers","inputs":[{"name":"","type":"uint256","internalType":"uint256"}],"outputs":[{"name":"","type":"address","internalType":"address"}],"stateMutability":"view"},{"type":"function","name":"whitelistedDappRewardUsers","inputs":[{"name":"","type":"uint256","internalType":"uint256"}],"outputs":[{"name":"","type":"address","internalType":"address"}],"stateMutability":"view"},{"type":"function","name":"withdraw","inputs":[],"outputs":[],"stateMutability":"nonpayable"},{"type":"event","name":"ClaimAmountUpdated","inputs":[{"name":"newClaimedAmount","type":"uint256","indexed":true,"internalType":"uint256"}],"anonymous":false},{"type":"event","name":"Claimed","inputs":[{"name":"claimType","type":"string","indexed":true,"internalType":"string"},{"name":"user","type":"address","indexed":true,"internalType":"address"},{"name":"amount","type":"uint256","indexed":true,"internalType":"uint256"}],"anonymous":false},{"type":"event","name":"EmergencyWithdraw","inputs":[{"name":"token","type":"address","indexed":true,"internalType":"address"},{"name":"amount","type":"uint256","indexed":true,"internalType":"uint256"}],"anonymous":false},{"type":"event","name":"OwnershipTransferred","inputs":[{"name":"previousOwner","type":"address","indexed":true,"internalType":"address"},{"name":"newOwner","type":"address","indexed":true,"internalType":"address"}],"anonymous":false},{"type":"event","name":"Paused","inputs":[{"name":"account","type":"address","indexed":false,"internalType":"address"}],"anonymous":false},{"type":"event","name":"Received","inputs":[{"name":"sender","type":"address","indexed":true,"internalType":"address"},{"name":"amount","type":"uint256","indexed":true,"internalType":"uint256"}],"anonymous":false},{"type":"event","name":"TestnetStatusUpdated","inputs":[{"name":"status","type":"bool","indexed":true,"internalType":"bool"}],"anonymous":false},{"type":"event","name":"Unpaused","inputs":[{"name":"account","type":"address","indexed":false,"internalType":"address"}],"anonymous":false},{"type":"event","name":"WhitelistUpdated","inputs":[{"name":"claimType","type":"string","indexed":true,"internalType":"string"},{"name":"user","type":"address","indexed":true,"internalType":"address"},{"name":"id","type":"uint256","indexed":true,"internalType":"uint256"}],"anonymous":false},{"type":"event","name":"Withdrawal","inputs":[{"name":"user","type":"address","indexed":true,"internalType":"address"},{"name":"amount","type":"uint256","indexed":true,"internalType":"uint256"}],"anonymous":false},{"type":"error","name":"EnforcedPause","inputs":[]},{"type":"error","name":"ExpectedPause","inputs":[]},{"type":"error","name":"INSUFFICIENT_BALANCE","inputs":[]},{"type":"error","name":"OwnableInvalidOwner","inputs":[{"name":"owner","type":"address","internalType":"address"}]},{"type":"error","name":"OwnableUnauthorizedAccount","inputs":[{"name":"account","type":"address","internalType":"address"}]},{"type":"error","name":"ReentrancyGuardReentrantCall","inputs":[]},{"type":"error","name":"SafeERC20FailedOperation","inputs":[{"name":"token","type":"address","internalType":"address"}]},{"type":"error","name":"USER_HAS_NO_CLAIM","inputs":[{"name":"user","type":"address","internalType":"address"}]}],"bytecode":{"object":"0x610120604052670de0b6b3a764000061138861001b9190610389565b60c090815250670de0b6b3a76400006101f46100379190610389565b60e090815250670de0b6b3a76400006105dc6100539190610389565b61010090815250348015610065575f5ffd5b506040516155b13803806155b183398181016040528101906100879190610428565b335f73ffffffffffffffffffffffffffffffffffffffff168173ffffffffffffffffffffffffffffffffffffffff16036100f8575f6040517f1e4fbdf70000000000000000000000000000000000000000000000000000000081526004016100ef9190610462565b60405180910390fd5b6101078161029260201b60201c565b50600180819055505f60025f6101000a81548160ff0219169083151502179055505f73ffffffffffffffffffffffffffffffffffffffff168173ffffffffffffffffffffffffffffffffffffffff1603610196576040517f08c379a000000000000000000000000000000000000000000000000000000000815260040161018d906104d5565b60405180910390fd5b8073ffffffffffffffffffffffffffffffffffffffff1660808173ffffffffffffffffffffffffffffffffffffffff16815250506a08af7623fb67bf1a80000060a081815250505f6005819055505f600c819055505f600d819055505f600e819055505f6015819055505f6016819055505f6017819055505f6018819055505f6019819055506001600260016101000a81548160ff021916908315150217905550600160275f3373ffffffffffffffffffffffffffffffffffffffff1673ffffffffffffffffffffffffffffffffffffffff1681526020019081526020015f205f6101000a81548160ff021916908315150217905550506104f3565b5f5f5f9054906101000a900473ffffffffffffffffffffffffffffffffffffffff169050815f5f6101000a81548173ffffffffffffffffffffffffffffffffffffffff021916908373ffffffffffffffffffffffffffffffffffffffff1602179055508173ffffffffffffffffffffffffffffffffffffffff168173ffffffffffffffffffffffffffffffffffffffff167f8be0079c531659141344cd1fd0a4f28419497f9722a3daafe3b4186f6b6457e060405160405180910390a35050565b5f819050919050565b7f4e487b71000000000000000000000000000000000000000000000000000000005f52601160045260245ffd5b5f61039382610353565b915061039e83610353565b92508282026103ac81610353565b915082820484148315176103c3576103c261035c565b5b5092915050565b5f5ffd5b5f73ffffffffffffffffffffffffffffffffffffffff82169050919050565b5f6103f7826103ce565b9050919050565b610407816103ed565b8114610411575f5ffd5b50565b5f81519050610422816103fe565b92915050565b5f6020828403121561043d5761043c6103ca565b5b5f61044a84828501610414565b91505092915050565b61045c816103ed565b82525050565b5f6020820190506104755f830184610453565b92915050565b5f82825260208201905092915050565b7f496e76616c696420746f6b656e206164647265737300000000000000000000005f82015250565b5f6104bf60158361047b565b91506104ca8261048b565b602082019050919050565b5f6020820190508181035f8301526104ec816104b3565b9050919050565b60805160a05160c05160e051610100516150496105685f395f8181612797015261329f01525f81816121ae015261362201525f818161280f01526135a601525f81816112a30152818161130d015281816124130152818161333e015281816136c401526138bc01525f6125d701526150495ff3fe60806040526004361061043f575f3560e01c806392108c8611610233578063d02be0a41161012d578063e5be0efb116100b5578063f2fde38b11610079578063f2fde38b1461113c578063f856f6ce14611164578063fc2bdb50146111a0578063fe78c9de146111ca578063fe9fbb80146111f45761048a565b8063e5be0efb14611034578063e801dfb114611070578063e934b0e31461109a578063ec2d04a0146110d6578063ee385a58146111005761048a565b8063dc9c8478116100fc578063dc9c847814610f50578063e105333514610f7a578063e164b6a214610fb6578063e281b53d14610fe0578063e2842d791461100a5761048a565b8063d02be0a414610e84578063d0f377a114610eae578063d44f754014610ed8578063dbcbd66d14610f145761048a565b8063ab3002b5116101bb578063b79cbdec1161017f578063b79cbdec14610d90578063b9ea367c14610dcc578063c7368c2314610df6578063c886f6f514610e32578063cb0c20c214610e5c5761048a565b8063ab3002b514610cc2578063b1a2d02714610cec578063b28f21b814610d14578063b332846314610d3e578063b37e94d014610d665761048a565b806398e6d1ad1161020257806398e6d1ad14610bcc5780639e805c8214610bf65780639fb1587d14610c32578063a2bdedf414610c5c578063aa2ab44614610c985761048a565b806392108c8614610b24578063959e6a9714610b4e57806395ae36fc14610b7857806396e9427d14610ba25761048a565b80635379a37811610344578063715018a6116102cc5780638845d4ca116102905780638845d4ca14610a445780638b5b44a914610a6c5780638da5cb5b14610aa857806390182d0a14610ad2578063902f356414610afa5761048a565b8063715018a614610976578063718bc02e1461098c57806379e17154146109c85780637b28283c146109f25780638456cb5914610a2e5761048a565b806366a8946b1161031357806366a8946b146108985780636cd9996c146108d45780636e69396a146108fc5780636ff1c9bc14610926578063711bf9b21461094e5761048a565b80635379a378146107f25780635c975abb1461081c5780635ed3aa9f1461084657806365e08b681461086e5761048a565b8063259ce6bc116103c75780633ccfd60b116103965780633ccfd60b146107385780633f4ba83a1461074e5780634a7eaced146107645780634b464f261461078c57806351ec97f9146107b65761048a565b8063259ce6bc1461066c57806333a9e0ec146106a857806339570f84146106d25780633c356c6b1461070e5761048a565b806316057b651161040e57806316057b651461059c5780631678c284146105c657806318160ddd146105f05780631ed970091461061a57806320451e3b146106425761048a565b806304b67d2e146104d05780630a3290a41461050c57806312065fe01461054857806314a7bc79146105725761048a565b3661048a57343373ffffffffffffffffffffffffffffffffffffffff167f88a5966d370b9919b20f3e2c13ff65706f196a4e32cc2c12bf57088f8852587460405160405180910390a3005b343373ffffffffffffffffffffffffffffffffffffffff167f88a5966d370b9919b20f3e2c13ff65706f196a4e32cc2c12bf57088f8852587460405160405180910390a3005b3480156104db575f5ffd5b506104f660048036038101906104f1919061410c565b611230565b6040516105039190614176565b60405180910390f35b348015610517575f5ffd5b50610532600480360381019061052d91906141b9565b61126b565b60405161053f91906141fe565b60405180910390f35b348015610553575f5ffd5b5061055c611288565b6040516105699190614226565b60405180910390f35b34801561057d575f5ffd5b5061058661128f565b6040516105939190614226565b60405180910390f35b3480156105a7575f5ffd5b506105b0611295565b6040516105bd9190614226565b60405180910390f35b3480156105d1575f5ffd5b506105da61129b565b6040516105e79190614226565b60405180910390f35b3480156105fb575f5ffd5b506106046112a1565b6040516106119190614226565b60405180910390f35b348015610625575f5ffd5b50610640600480360381019061063b919061410c565b6112c5565b005b34801561064d575f5ffd5b50610656611304565b6040516106639190614226565b60405180910390f35b348015610677575f5ffd5b50610692600480360381019061068d91906141b9565b611367565b60405161069f91906141fe565b60405180910390f35b3480156106b3575f5ffd5b506106bc611384565b6040516106c991906142f6565b60405180910390f35b3480156106dd575f5ffd5b506106f860048036038101906106f3919061410c565b61140f565b6040516107059190614176565b60405180910390f35b348015610719575f5ffd5b5061072261144a565b60405161072f9190614226565b60405180910390f35b348015610743575f5ffd5b5061074c611450565b005b348015610759575f5ffd5b5061076261152e565b005b34801561076f575f5ffd5b5061078a60048036038101906107859190614377565b611540565b005b348015610797575f5ffd5b506107a06119a6565b6040516107ad9190614226565b60405180910390f35b3480156107c1575f5ffd5b506107dc60048036038101906107d791906141b9565b6119ac565b6040516107e991906141fe565b60405180910390f35b3480156107fd575f5ffd5b506108066119c8565b6040516108139190614226565b60405180910390f35b348015610827575f5ffd5b506108306119ce565b60405161083d91906141fe565b60405180910390f35b348015610851575f5ffd5b5061086c60048036038101906108679190614377565b6119e3565b005b348015610879575f5ffd5b50610882611a9a565b60405161088f9190614226565b60405180910390f35b3480156108a3575f5ffd5b506108be60048036038101906108b991906141b9565b611aa0565b6040516108cb91906141fe565b60405180910390f35b3480156108df575f5ffd5b506108fa60048036038101906108f59190614417565b611abd565b005b348015610907575f5ffd5b50610910611fb9565b60405161091d9190614226565b60405180910390f35b348015610931575f5ffd5b5061094c600480360381019061094791906141b9565b611fbf565b005b348015610959575f5ffd5b50610974600480360381019061096f91906144bf565b6120fe565b005b348015610981575f5ffd5b5061098a61215e565b005b348015610997575f5ffd5b506109b260048036038101906109ad919061410c565b612171565b6040516109bf9190614176565b60405180910390f35b3480156109d3575f5ffd5b506109dc6121ac565b6040516109e99190614226565b60405180910390f35b3480156109fd575f5ffd5b50610a186004803603810190610a1391906141b9565b6121d0565b604051610a259190614226565b60405180910390f35b348015610a39575f5ffd5b50610a426121e5565b005b348015610a4f575f5ffd5b50610a6a6004803603810190610a6591906144fd565b6121f7565b005b348015610a77575f5ffd5b50610a926004803603810190610a8d91906141b9565b612368565b604051610a9f91906141fe565b60405180910390f35b348015610ab3575f5ffd5b50610abc612385565b604051610ac99190614176565b60405180910390f35b348015610add575f5ffd5b50610af86004803603810190610af3919061410c565b6123ac565b005b348015610b05575f5ffd5b50610b0e6123eb565b604051610b1b9190614226565b60405180910390f35b348015610b2f575f5ffd5b50610b386123f0565b604051610b4591906141fe565b60405180910390f35b348015610b59575f5ffd5b50610b62612403565b604051610b6f9190614226565b60405180910390f35b348015610b83575f5ffd5b50610b8c612409565b604051610b999190614226565b60405180910390f35b348015610bad575f5ffd5b50610bb661246d565b604051610bc39190614226565b60405180910390f35b348015610bd7575f5ffd5b50610be0612473565b604051610bed9190614226565b60405180910390f35b348015610c01575f5ffd5b50610c1c6004803603810190610c17919061410c565b612496565b604051610c299190614176565b60405180910390f35b348015610c3d575f5ffd5b50610c466124d1565b604051610c539190614226565b60405180910390f35b348015610c67575f5ffd5b50610c826004803603810190610c7d919061410c565b6124d7565b604051610c8f9190614176565b60405180910390f35b348015610ca3575f5ffd5b50610cac612512565b604051610cb99190614226565b60405180910390f35b348015610ccd575f5ffd5b50610cd6612518565b604051610ce39190614226565b60405180910390f35b348015610cf7575f5ffd5b50610d126004803603810190610d0d9190614377565b61251e565b005b348015610d1f575f5ffd5b50610d286125d5565b604051610d3591906145a8565b60405180910390f35b348015610d49575f5ffd5b50610d646004803603810190610d5f9190614377565b6125f9565b005b348015610d71575f5ffd5b50610d7a6126b0565b604051610d879190614226565b60405180910390f35b348015610d9b575f5ffd5b50610db66004803603810190610db191906145c1565b6126b6565b604051610dc391906141fe565b60405180910390f35b348015610dd7575f5ffd5b50610de06126e0565b604051610ded91906142f6565b60405180910390f35b348015610e01575f5ffd5b50610e1c6004803603810190610e1791906145c1565b61276b565b604051610e2991906141fe565b60405180910390f35b348015610e3d575f5ffd5b50610e46612795565b604051610e539190614226565b60405180910390f35b348015610e67575f5ffd5b50610e826004803603810190610e7d91906145ff565b6127b9565b005b348015610e8f575f5ffd5b50610e9861280d565b604051610ea59190614226565b60405180910390f35b348015610eb9575f5ffd5b50610ec2612831565b604051610ecf9190614226565b60405180910390f35b348015610ee3575f5ffd5b50610efe6004803603810190610ef991906141b9565b612837565b604051610f0b9190614226565b60405180910390f35b348015610f1f575f5ffd5b50610f3a6004803603810190610f3591906141b9565b6128d2565b604051610f479190614226565b60405180910390f35b348015610f5b575f5ffd5b50610f646128e7565b604051610f719190614226565b60405180910390f35b348015610f85575f5ffd5b50610fa06004803603810190610f9b91906141b9565b6128ed565b604051610fad91906141fe565b60405180910390f35b348015610fc1575f5ffd5b50610fca61290a565b604051610fd79190614226565b60405180910390f35b348015610feb575f5ffd5b50610ff4612910565b6040516110019190614226565b60405180910390f35b348015611015575f5ffd5b5061101e612916565b60405161102b91906142f6565b60405180910390f35b34801561103f575f5ffd5b5061105a600480360381019061105591906145c1565b6129a1565b604051611067919061469d565b60405180910390f35b34801561107b575f5ffd5b506110846129cb565b6040516110919190614226565b60405180910390f35b3480156110a5575f5ffd5b506110c060048036038101906110bb91906141b9565b6129d1565b6040516110cd91906141fe565b60405180910390f35b3480156110e1575f5ffd5b506110ea6129ee565b6040516110f79190614226565b60405180910390f35b34801561110b575f5ffd5b506111266004803603810190611121919061410c565b6129f4565b6040516111339190614176565b60405180910390f35b348015611147575f5ffd5b50611162600480360381019061115d91906141b9565b612a2f565b005b34801561116f575f5ffd5b5061118a600480360381019061118591906141b9565b612ab3565b60405161119791906141fe565b60405180910390f35b3480156111ab575f5ffd5b506111b4612ad0565b6040516111c19190614226565b60405180910390f35b3480156111d5575f5ffd5b506111de612ad6565b6040516111eb9190614226565b60405180910390f35b3480156111ff575f5ffd5b5061121a600480360381019061121591906141b9565b612adc565b60405161122791906141fe565b60405180910390f35b6013818154811061123f575f80fd5b905f5260205f20015f915054906101000a900473ffffffffffffffffffffffffffffffffffffffff1681565b601c602052805f5260405f205f915054906101000a900460ff1681565b5f47905090565b60175481565b60065481565b610dac81565b7f000000000000000000000000000000000000000000000000000000000000000081565b6112cd612af9565b80600381905550807f6a856539d0c38e2d0062c02baf02b3d784e9de37335f10d75d5ed7e606c7045660405160405180910390a250565b5f5f61271060c87f000000000000000000000000000000000000000000000000000000000000000061133691906146e3565b6113409190614751565b905080600754101561135f576007548161135a9190614781565b611361565b5f5b91505090565b6024602052805f5260405f205f915054906101000a900460ff1681565b6060601280548060200260200160405190810160405280929190818152602001828054801561140557602002820191905f5260205f20905b815f9054906101000a900473ffffffffffffffffffffffffffffffffffffffff1673ffffffffffffffffffffffffffffffffffffffff16815260200190600101908083116113bc575b5050505050905090565b6010818154811061141e575f80fd5b905f5260205f20015f915054906101000a900473ffffffffffffffffffffffffffffffffffffffff1681565b61019081565b611458612af9565b5f4790505f8103611495576040517f50b1f35600000000000000000000000000000000000000000000000000000000815260040160405180910390fd5b61149d612385565b73ffffffffffffffffffffffffffffffffffffffff166108fc8290811502906040515f60405180830381858888f193505050501580156114df573d5f5f3e3d5ffd5b50806114e9612385565b73ffffffffffffffffffffffffffffffffffffffff167f7fcf532c15f0a6db0bd6d0e038bea71d30d808c7d98cb3bf7268a95bf5081b6560405160405180910390a350565b611536612af9565b61153e612b80565b565b611548612af9565b600260019054906101000a900460ff16611597576040517f08c379a000000000000000000000000000000000000000000000000000000000815260040161158e9061480e565b60405180910390fd5b5f82829050116115dc576040517f08c379a00000000000000000000000000000000000000000000000000000000081526004016115d390614876565b60405180910390fd5b60165f8154809291906115ee90614894565b91905055505f5f90505b828290508110156119a1575f838383818110611617576116166148db565b5b905060200201602081019061162c91906141b9565b90505f73ffffffffffffffffffffffffffffffffffffffff168173ffffffffffffffffffffffffffffffffffffffff1614806116bf5750601a5f8273ffffffffffffffffffffffffffffffffffffffff1673ffffffffffffffffffffffffffffffffffffffff1681526020019081526020015f205f60165481526020019081526020015f205f9054906101000a900460ff165b156116ca5750611994565b6001601a5f8373ffffffffffffffffffffffffffffffffffffffff1673ffffffffffffffffffffffffffffffffffffffff1681526020019081526020015f205f60165481526020019081526020015f205f6101000a81548160ff02191690831515021790555060235f8273ffffffffffffffffffffffffffffffffffffffff1673ffffffffffffffffffffffffffffffffffffffff1681526020019081526020015f205f9054906101000a900460ff1661183457601281908060018154018082558091505060019003905f5260205f20015f9091909190916101000a81548173ffffffffffffffffffffffffffffffffffffffff021916908373ffffffffffffffffffffffffffffffffffffffff160217905550600160235f8373ffffffffffffffffffffffffffffffffffffffff1673ffffffffffffffffffffffffffffffffffffffff1681526020019081526020015f205f6101000a81548160ff0219169083151502179055505b60225f8273ffffffffffffffffffffffffffffffffffffffff1673ffffffffffffffffffffffffffffffffffffffff1681526020019081526020015f205f9054906101000a900460ff1661193857601481908060018154018082558091505060019003905f5260205f20015f9091909190916101000a81548173ffffffffffffffffffffffffffffffffffffffff021916908373ffffffffffffffffffffffffffffffffffffffff160217905550600160225f8373ffffffffffffffffffffffffffffffffffffffff1673ffffffffffffffffffffffffffffffffffffffff1681526020019081526020015f205f6101000a81548160ff0219169083151502179055505b6016548173ffffffffffffffffffffffffffffffffffffffff1660405161195e9061495c565b60405180910390207f0cc74ec5a2170364c1023d7bf294fc7b106196a382ff3adc1a4335345de3087a60405160405180910390a4505b80806001019150506115f8565b505050565b60035481565b60208052805f5260405f205f915054906101000a900460ff1681565b600e5481565b5f60025f9054906101000a900460ff16905090565b6119eb612af9565b600260019054906101000a900460ff16611a3a576040517f08c379a0000000000000000000000000000000000000000000000000000000008152600401611a319061480e565b60405180910390fd5b60175f815480929190611a4c90614894565b9190505550611a96828260175460016040518060400160405280600e81526020017f4c6f772042756720426f756e7479000000000000000000000000000000000000815250612be1565b5050565b60075481565b6023602052805f5260405f205f915054906101000a900460ff1681565b611ac5612af9565b600260019054906101000a900460ff16611b14576040517f08c379a0000000000000000000000000000000000000000000000000000000008152600401611b0b9061480e565b60405180910390fd5b8181905084849050148015611b2b57505f84849050115b611b6a576040517f08c379a0000000000000000000000000000000000000000000000000000000008152600401611b61906149ba565b60405180910390fd5b60155f815480929190611b7c90614894565b91905055505f5f90505b84849050811015611fb2575f858583818110611ba557611ba46148db565b5b9050602002016020810190611bba91906141b9565b90505f73ffffffffffffffffffffffffffffffffffffffff168173ffffffffffffffffffffffffffffffffffffffff161480611c4d5750601b5f8273ffffffffffffffffffffffffffffffffffffffff1673ffffffffffffffffffffffffffffffffffffffff1681526020019081526020015f205f60155481526020019081526020015f205f9054906101000a900460ff165b15611c585750611fa5565b838383818110611c6b57611c6a6148db565b5b9050602002016020810190611c8091906145ff565b15611cdb57600160205f8373ffffffffffffffffffffffffffffffffffffffff1673ffffffffffffffffffffffffffffffffffffffff1681526020019081526020015f205f6101000a81548160ff0219169083151502179055505b6001601b5f8373ffffffffffffffffffffffffffffffffffffffff1673ffffffffffffffffffffffffffffffffffffffff1681526020019081526020015f205f60155481526020019081526020015f205f6101000a81548160ff02191690831515021790555060245f8273ffffffffffffffffffffffffffffffffffffffff1673ffffffffffffffffffffffffffffffffffffffff1681526020019081526020015f205f9054906101000a900460ff16611e4557601381908060018154018082558091505060019003905f5260205f20015f9091909190916101000a81548173ffffffffffffffffffffffffffffffffffffffff021916908373ffffffffffffffffffffffffffffffffffffffff160217905550600160245f8373ffffffffffffffffffffffffffffffffffffffff1673ffffffffffffffffffffffffffffffffffffffff1681526020019081526020015f205f6101000a81548160ff0219169083151502179055505b60225f8273ffffffffffffffffffffffffffffffffffffffff1673ffffffffffffffffffffffffffffffffffffffff1681526020019081526020015f205f9054906101000a900460ff16611f4957601481908060018154018082558091505060019003905f5260205f20015f9091909190916101000a81548173ffffffffffffffffffffffffffffffffffffffff021916908373ffffffffffffffffffffffffffffffffffffffff160217905550600160225f8373ffffffffffffffffffffffffffffffffffffffff1673ffffffffffffffffffffffffffffffffffffffff1681526020019081526020015f205f6101000a81548160ff0219169083151502179055505b6015548173ffffffffffffffffffffffffffffffffffffffff16604051611f6f90614a22565b60405180910390207f0cc74ec5a2170364c1023d7bf294fc7b106196a382ff3adc1a4335345de3087a60405160405180910390a4505b8080600101915050611b86565b5050505050565b600d5481565b611fc7612af9565b5f8173ffffffffffffffffffffffffffffffffffffffff166370a08231306040518263ffffffff1660e01b81526004016120019190614176565b602060405180830381865afa15801561201c573d5f5f3e3d5ffd5b505050506040513d601f19601f820116820180604052508101906120409190614a4a565b90505f8111612084576040517f08c379a000000000000000000000000000000000000000000000000000000000815260040161207b90614abf565b60405180910390fd5b6120b661208f612385565b828473ffffffffffffffffffffffffffffffffffffffff16612f9a9092919063ffffffff16565b808273ffffffffffffffffffffffffffffffffffffffff167f5fafa99d0643513820be26656b45130b01e1c03062e1266bf36f88cbd3bd969560405160405180910390a35050565b612106612af9565b8060275f8473ffffffffffffffffffffffffffffffffffffffff1673ffffffffffffffffffffffffffffffffffffffff1681526020019081526020015f205f6101000a81548160ff0219169083151502179055505050565b612166612af9565b61216f5f613019565b565b60128181548110612180575f80fd5b905f5260205f20015f915054906101000a900473ffffffffffffffffffffffffffffffffffffffff1681565b7f000000000000000000000000000000000000000000000000000000000000000081565b6026602052805f5260405f205f915090505481565b6121ed612af9565b6121f56130da565b565b6121ff61313c565b612207613182565b600260019054906101000a900460ff1615612257576040517f08c379a000000000000000000000000000000000000000000000000000000000815260040161224e90614b27565b60405180910390fd5b60275f3373ffffffffffffffffffffffffffffffffffffffff1673ffffffffffffffffffffffffffffffffffffffff1681526020019081526020015f205f9054906101000a900460ff166122e0576040517f08c379a00000000000000000000000000000000000000000000000000000000081526004016122d790614b8f565b60405180910390fd5b82156122f4576122ef336131c3565b61235b565b81156123085761230333613445565b61235a565b801561231c57612317336137cb565b612359565b336040517fc5a3e2b50000000000000000000000000000000000000000000000000000000081526004016123509190614176565b60405180910390fd5b5b5b612363613ccb565b505050565b601d602052805f5260405f205f915054906101000a900460ff1681565b5f5f5f9054906101000a900473ffffffffffffffffffffffffffffffffffffffff16905090565b6123b4612af9565b80600481905550807f6a856539d0c38e2d0062c02baf02b3d784e9de37335f10d75d5ed7e606c7045660405160405180910390a250565b60c881565b600260019054906101000a900460ff1681565b60095481565b5f5f6127106101907f000000000000000000000000000000000000000000000000000000000000000061243c91906146e3565b6124469190614751565b905080600654101561246557600654816124609190614781565b612467565b5f5b91505090565b600a5481565b5f600654600754600b546124879190614bad565b6124919190614bad565b905090565b601181815481106124a5575f80fd5b905f5260205f20015f915054906101000a900473ffffffffffffffffffffffffffffffffffffffff1681565b60195481565b601481815481106124e6575f80fd5b905f5260205f20015f915054906101000a900473ffffffffffffffffffffffffffffffffffffffff1681565b6101f481565b60085481565b612526612af9565b600260019054906101000a900460ff16612575576040517f08c379a000000000000000000000000000000000000000000000000000000000815260040161256c9061480e565b60405180910390fd5b60195f81548092919061258790614894565b91905055506125d1828260195460036040518060400160405280600f81526020017f486967682042756720426f756e74790000000000000000000000000000000000815250612be1565b5050565b7f000000000000000000000000000000000000000000000000000000000000000081565b612601612af9565b600260019054906101000a900460ff16612650576040517f08c379a00000000000000000000000000000000000000000000000000000000081526004016126479061480e565b60405180910390fd5b60185f81548092919061266290614894565b91905055506126ac828260185460026040518060400160405280601181526020017f4d656469756d2042756720426f756e7479000000000000000000000000000000815250612be1565b5050565b60165481565b601a602052815f5260405f20602052805f5260405f205f915091509054906101000a900460ff1681565b6060601380548060200260200160405190810160405280929190818152602001828054801561276157602002820191905f5260205f20905b815f9054906101000a900473ffffffffffffffffffffffffffffffffffffffff1673ffffffffffffffffffffffffffffffffffffffff1681526020019060010190808311612718575b5050505050905090565b601b602052815f5260405f20602052805f5260405f205f915091509054906101000a900460ff1681565b7f000000000000000000000000000000000000000000000000000000000000000081565b6127c1612af9565b80600260016101000a81548160ff0219169083151502179055508015157fae5a988c3bc84b0090fff2c3d9783c9669551640c8d8e2a35e181f9e773fd8e560405160405180910390a250565b7f000000000000000000000000000000000000000000000000000000000000000081565b60045481565b5f5f5f600190505b60165481116128c857601a5f8573ffffffffffffffffffffffffffffffffffffffff1673ffffffffffffffffffffffffffffffffffffffff1681526020019081526020015f205f8281526020019081526020015f205f9054906101000a900460ff16156128b55781806128b190614894565b9250505b80806128c090614894565b91505061283f565b5080915050919050565b6025602052805f5260405f205f915090505481565b600c5481565b601f602052805f5260405f205f915054906101000a900460ff1681565b60155481565b61177081565b6060601480548060200260200160405190810160405280929190818152602001828054801561299757602002820191905f5260205f20905b815f9054906101000a900473ffffffffffffffffffffffffffffffffffffffff1673ffffffffffffffffffffffffffffffffffffffff168152602001906001019080831161294e575b5050505050905090565b6021602052815f5260405f20602052805f5260405f205f915091509054906101000a900460ff1681565b60055481565b601e602052805f5260405f205f915054906101000a900460ff1681565b61177081565b600f8181548110612a03575f80fd5b905f5260205f20015f915054906101000a900473ffffffffffffffffffffffffffffffffffffffff1681565b612a37612af9565b5f73ffffffffffffffffffffffffffffffffffffffff168173ffffffffffffffffffffffffffffffffffffffff1603612aa7575f6040517f1e4fbdf7000000000000000000000000000000000000000000000000000000008152600401612a9e9190614176565b60405180910390fd5b612ab081613019565b50565b6022602052805f5260405f205f915054906101000a900460ff1681565b600b5481565b60185481565b6027602052805f5260405f205f915054906101000a900460ff1681565b612b01613cd4565b73ffffffffffffffffffffffffffffffffffffffff16612b1f612385565b73ffffffffffffffffffffffffffffffffffffffff1614612b7e57612b42613cd4565b6040517f118cdaa7000000000000000000000000000000000000000000000000000000008152600401612b759190614176565b60405180910390fd5b565b612b88613cdb565b5f60025f6101000a81548160ff0219169083151502179055507f5db9ee0a495bf2e6ff9c91a7834c1ba4fdd244a5e8aa4e537bd38aeae4b073aa612bca613cd4565b604051612bd79190614176565b60405180910390a1565b5f5f90505b85859050811015612f92575f868683818110612c0557612c046148db565b5b9050602002016020810190612c1a91906141b9565b90505f73ffffffffffffffffffffffffffffffffffffffff168173ffffffffffffffffffffffffffffffffffffffff161480612cd257505f6003811115612c6457612c6361462a565b5b60215f8373ffffffffffffffffffffffffffffffffffffffff1673ffffffffffffffffffffffffffffffffffffffff1681526020019081526020015f205f8781526020019081526020015f205f9054906101000a900460ff166003811115612ccf57612cce61462a565b5b14155b15612cdd5750612f85565b60016003811115612cf157612cf061462a565b5b846003811115612d0457612d0361462a565b5b03612d2557600c5f815480929190612d1b90614894565b9190505550612db2565b60026003811115612d3957612d3861462a565b5b846003811115612d4c57612d4b61462a565b5b03612d6d57600d5f815480929190612d6390614894565b9190505550612db1565b600380811115612d8057612d7f61462a565b5b846003811115612d9357612d9261462a565b5b03612db057600e5f815480929190612daa90614894565b91905055505b5b5b60225f8273ffffffffffffffffffffffffffffffffffffffff1673ffffffffffffffffffffffffffffffffffffffff1681526020019081526020015f205f9054906101000a900460ff16612e6157601481908060018154018082558091505060019003905f5260205f20015f9091909190916101000a81548173ffffffffffffffffffffffffffffffffffffffff021916908373ffffffffffffffffffffffffffffffffffffffff1602179055505b8360215f8373ffffffffffffffffffffffffffffffffffffffff1673ffffffffffffffffffffffffffffffffffffffff1681526020019081526020015f205f8781526020019081526020015f205f6101000a81548160ff02191690836003811115612ecf57612ece61462a565b5b0217905550600160225f8373ffffffffffffffffffffffffffffffffffffffff1673ffffffffffffffffffffffffffffffffffffffff1681526020019081526020015f205f6101000a81548160ff021916908315150217905550848173ffffffffffffffffffffffffffffffffffffffff1684604051612f4f9190614c28565b60405180910390207f0cc74ec5a2170364c1023d7bf294fc7b106196a382ff3adc1a4335345de3087a60405160405180910390a4505b8080600101915050612be6565b505050505050565b613014838473ffffffffffffffffffffffffffffffffffffffff1663a9059cbb8585604051602401612fcd929190614c3e565b604051602081830303815290604052915060e01b6020820180517bffffffffffffffffffffffffffffffffffffffffffffffffffffffff8381831617835250505050613d1b565b505050565b5f5f5f9054906101000a900473ffffffffffffffffffffffffffffffffffffffff169050815f5f6101000a81548173ffffffffffffffffffffffffffffffffffffffff021916908373ffffffffffffffffffffffffffffffffffffffff1602179055508173ffffffffffffffffffffffffffffffffffffffff168173ffffffffffffffffffffffffffffffffffffffff167f8be0079c531659141344cd1fd0a4f28419497f9722a3daafe3b4186f6b6457e060405160405180910390a35050565b6130e2613182565b600160025f6101000a81548160ff0219169083151502179055507f62e78cea01bee320cd4e420270b5ea74000d11b0c9f74754ebdbfc544b05a258613125613cd4565b6040516131329190614176565b60405180910390a1565b600260015403613178576040517f3ee5aeb500000000000000000000000000000000000000000000000000000000815260040160405180910390fd5b6002600181905550565b61318a6119ce565b156131c1576040517fd93c066500000000000000000000000000000000000000000000000000000000815260040160405180910390fd5b565b5f6131cd82612837565b90505f8111613211576040517f08c379a000000000000000000000000000000000000000000000000000000000815260040161320890614caf565b60405180910390fd5b601c5f8373ffffffffffffffffffffffffffffffffffffffff1673ffffffffffffffffffffffffffffffffffffffff1681526020019081526020015f205f9054906101000a900460ff161561329b576040517f08c379a000000000000000000000000000000000000000000000000000000000815260040161329290614d17565b60405180910390fd5b5f817f00000000000000000000000000000000000000000000000000000000000000006132c891906146e3565b90506001601c5f8573ffffffffffffffffffffffffffffffffffffffff1673ffffffffffffffffffffffffffffffffffffffff1681526020019081526020015f205f6101000a81548160ff0219169083151502179055508060075f8282546133309190614bad565b9250508190555061271060c87f000000000000000000000000000000000000000000000000000000000000000061336791906146e3565b6133719190614751565b60075411156133b5576040517f08c379a00000000000000000000000000000000000000000000000000000000081526004016133ac90614d7f565b60405180910390fd5b6133bf8382613db6565b808373ffffffffffffffffffffffffffffffffffffffff166133e084613e9d565b6040516020016133f09190614de9565b60405160208183030381529060405260405161340c9190614c28565b60405180910390207f7ca58b3d3af286614421364e3dc07e3961a7ce97c19ab3be45fdc2ad13d0b97d60405160405180910390a4505050565b5f5f600190505b60155481116134d557601b5f8473ffffffffffffffffffffffffffffffffffffffff1673ffffffffffffffffffffffffffffffffffffffff1681526020019081526020015f205f8281526020019081526020015f205f9054906101000a900460ff16156134c25781806134be90614894565b9250505b80806134cd90614894565b91505061344c565b505f8111613518576040517f08c379a000000000000000000000000000000000000000000000000000000000815260040161350f90614caf565b60405180910390fd5b601e5f8373ffffffffffffffffffffffffffffffffffffffff1673ffffffffffffffffffffffffffffffffffffffff1681526020019081526020015f205f9054906101000a900460ff16156135a2576040517f08c379a000000000000000000000000000000000000000000000000000000000815260040161359990614d17565b60405180910390fd5b5f817f00000000000000000000000000000000000000000000000000000000000000006135cf91906146e3565b905060205f8473ffffffffffffffffffffffffffffffffffffffff1673ffffffffffffffffffffffffffffffffffffffff1681526020019081526020015f205f9054906101000a900460ff161561364f577f00000000000000000000000000000000000000000000000000000000000000008161364c9190614bad565b90505b6001601e5f8573ffffffffffffffffffffffffffffffffffffffff1673ffffffffffffffffffffffffffffffffffffffff1681526020019081526020015f205f6101000a81548160ff0219169083151502179055508060065f8282546136b59190614bad565b925050819055506127106101907f00000000000000000000000000000000000000000000000000000000000000006136ed91906146e3565b6136f79190614751565b600654111561373b576040517f08c379a000000000000000000000000000000000000000000000000000000000815260040161373290614d7f565b60405180910390fd5b6137458382613db6565b808373ffffffffffffffffffffffffffffffffffffffff1661376684613e9d565b6040516020016137769190614e43565b6040516020818303038152906040526040516137929190614c28565b60405180910390207f7ca58b3d3af286614421364e3dc07e3961a7ce97c19ab3be45fdc2ad13d0b97d60405160405180910390a4505050565b601f5f8273ffffffffffffffffffffffffffffffffffffffff1673ffffffffffffffffffffffffffffffffffffffff1681526020019081526020015f205f9054906101000a900460ff1615613855576040517f08c379a000000000000000000000000000000000000000000000000000000000815260040161384c90614d17565b60405180910390fd5b5f600c5411801561386757505f600d54115b801561387457505f600e54115b6138b3576040517f08c379a00000000000000000000000000000000000000000000000000000000081526004016138aa90614ec1565b60405180910390fd5b5f6127106117707f00000000000000000000000000000000000000000000000000000000000000006138e591906146e3565b6138ef9190614751565b90505f600c5411613900575f613929565b600c546127106101f48361391491906146e3565b61391e9190614751565b6139289190614751565b5b6008819055505f600d541161393e575f613967565b600d54612710610dac8361395291906146e3565b61395c9190614751565b6139669190614751565b5b6009819055505f600e541161397c575f6139a5565b600e546127106117708361399091906146e3565b61399a9190614751565b6139a49190614751565b5b600a819055505f6139c56139bd601754601854613f67565b601954613f67565b90505f5f600190505b828111613bb057600160038111156139e9576139e861462a565b5b60215f8773ffffffffffffffffffffffffffffffffffffffff1673ffffffffffffffffffffffffffffffffffffffff1681526020019081526020015f205f8381526020019081526020015f205f9054906101000a900460ff166003811115613a5457613a5361462a565b5b03613a6e5760085482613a679190614bad565b9150613b9d565b60026003811115613a8257613a8161462a565b5b60215f8773ffffffffffffffffffffffffffffffffffffffff1673ffffffffffffffffffffffffffffffffffffffff1681526020019081526020015f205f8381526020019081526020015f205f9054906101000a900460ff166003811115613aed57613aec61462a565b5b03613b075760095482613b009190614bad565b9150613b9c565b600380811115613b1a57613b1961462a565b5b60215f8773ffffffffffffffffffffffffffffffffffffffff1673ffffffffffffffffffffffffffffffffffffffff1681526020019081526020015f205f8381526020019081526020015f205f9054906101000a900460ff166003811115613b8557613b8461462a565b5b03613b9b57600a5482613b989190614bad565b91505b5b5b8080613ba890614894565b9150506139ce565b506001601f5f8673ffffffffffffffffffffffffffffffffffffffff1673ffffffffffffffffffffffffffffffffffffffff1681526020019081526020015f205f6101000a81548160ff02191690831515021790555080600b5f828254613c179190614bad565b9250508190555082600b541115613c63576040517f08c379a0000000000000000000000000000000000000000000000000000000008152600401613c5a90614d7f565b60405180910390fd5b613c6d8482613db6565b808473ffffffffffffffffffffffffffffffffffffffff16604051613c9190614f29565b60405180910390207f7ca58b3d3af286614421364e3dc07e3961a7ce97c19ab3be45fdc2ad13d0b97d60405160405180910390a450505050565b60018081905550565b5f33905090565b613ce36119ce565b613d19576040517f8dfc202b00000000000000000000000000000000000000000000000000000000815260040160405180910390fd5b565b5f5f60205f8451602086015f885af180613d3a576040513d5f823e3d81fd5b3d92505f519150505f8214613d53576001811415613d6e565b5f8473ffffffffffffffffffffffffffffffffffffffff163b145b15613db057836040517f5274afe7000000000000000000000000000000000000000000000000000000008152600401613da79190614176565b60405180910390fd5b50505050565b80471015613df0576040517f50b1f35600000000000000000000000000000000000000000000000000000000815260040160405180910390fd5b5f8273ffffffffffffffffffffffffffffffffffffffff1682604051613e1590614f6a565b5f6040518083038185875af1925050503d805f8114613e4f576040519150601f19603f3d011682016040523d82523d5f602084013e613e54565b606091505b5050905080613e98576040517f08c379a0000000000000000000000000000000000000000000000000000000008152600401613e8f90614fc8565b60405180910390fd5b505050565b60605f6001613eab84613f80565b0190505f8167ffffffffffffffff811115613ec957613ec8614fe6565b5b6040519080825280601f01601f191660200182016040528015613efb5781602001600182028036833780820191505090505b5090505f82602001820190505b600115613f5c578080600190039150507f3031323334353637383961626364656600000000000000000000000000000000600a86061a8153600a8581613f5157613f50614724565b5b0494505f8503613f08575b819350505050919050565b5f81831015613f765781613f78565b825b905092915050565b5f5f5f90507a184f03e93ff9f4daa797ed6e38ed64bf6a1f0100000000000000008310613fdc577a184f03e93ff9f4daa797ed6e38ed64bf6a1f0100000000000000008381613fd257613fd1614724565b5b0492506040810190505b6d04ee2d6d415b85acef81000000008310614019576d04ee2d6d415b85acef8100000000838161400f5761400e614724565b5b0492506020810190505b662386f26fc10000831061404857662386f26fc10000838161403e5761403d614724565b5b0492506010810190505b6305f5e1008310614071576305f5e100838161406757614066614724565b5b0492506008810190505b612710831061409657612710838161408c5761408b614724565b5b0492506004810190505b606483106140b957606483816140af576140ae614724565b5b0492506002810190505b600a83106140c8576001810190505b80915050919050565b5f5ffd5b5f5ffd5b5f819050919050565b6140eb816140d9565b81146140f5575f5ffd5b50565b5f81359050614106816140e2565b92915050565b5f60208284031215614121576141206140d1565b5b5f61412e848285016140f8565b91505092915050565b5f73ffffffffffffffffffffffffffffffffffffffff82169050919050565b5f61416082614137565b9050919050565b61417081614156565b82525050565b5f6020820190506141895f830184614167565b92915050565b61419881614156565b81146141a2575f5ffd5b50565b5f813590506141b38161418f565b92915050565b5f602082840312156141ce576141cd6140d1565b5b5f6141db848285016141a5565b91505092915050565b5f8115159050919050565b6141f8816141e4565b82525050565b5f6020820190506142115f8301846141ef565b92915050565b614220816140d9565b82525050565b5f6020820190506142395f830184614217565b92915050565b5f81519050919050565b5f82825260208201905092915050565b5f819050602082019050919050565b61427181614156565b82525050565b5f6142828383614268565b60208301905092915050565b5f602082019050919050565b5f6142a48261423f565b6142ae8185614249565b93506142b983614259565b805f5b838110156142e95781516142d08882614277565b97506142db8361428e565b9250506001810190506142bc565b5085935050505092915050565b5f6020820190508181035f83015261430e818461429a565b905092915050565b5f5ffd5b5f5ffd5b5f5ffd5b5f5f83601f84011261433757614336614316565b5b8235905067ffffffffffffffff8111156143545761435361431a565b5b6020830191508360208202830111156143705761436f61431e565b5b9250929050565b5f5f6020838503121561438d5761438c6140d1565b5b5f83013567ffffffffffffffff8111156143aa576143a96140d5565b5b6143b685828601614322565b92509250509250929050565b5f5f83601f8401126143d7576143d6614316565b5b8235905067ffffffffffffffff8111156143f4576143f361431a565b5b6020830191508360208202830111156144105761440f61431e565b5b9250929050565b5f5f5f5f6040858703121561442f5761442e6140d1565b5b5f85013567ffffffffffffffff81111561444c5761444b6140d5565b5b61445887828801614322565b9450945050602085013567ffffffffffffffff81111561447b5761447a6140d5565b5b614487878288016143c2565b925092505092959194509250565b61449e816141e4565b81146144a8575f5ffd5b50565b5f813590506144b981614495565b92915050565b5f5f604083850312156144d5576144d46140d1565b5b5f6144e2858286016141a5565b92505060206144f3858286016144ab565b9150509250929050565b5f5f5f60608486031215614514576145136140d1565b5b5f614521868287016144ab565b9350506020614532868287016144ab565b9250506040614543868287016144ab565b9150509250925092565b5f819050919050565b5f61457061456b61456684614137565b61454d565b614137565b9050919050565b5f61458182614556565b9050919050565b5f61459282614577565b9050919050565b6145a281614588565b82525050565b5f6020820190506145bb5f830184614599565b92915050565b5f5f604083850312156145d7576145d66140d1565b5b5f6145e4858286016141a5565b92505060206145f5858286016140f8565b9150509250929050565b5f60208284031215614614576146136140d1565b5b5f614621848285016144ab565b91505092915050565b7f4e487b71000000000000000000000000000000000000000000000000000000005f52602160045260245ffd5b600481106146685761466761462a565b5b50565b5f81905061467882614657565b919050565b5f6146878261466b565b9050919050565b6146978161467d565b82525050565b5f6020820190506146b05f83018461468e565b92915050565b7f4e487b71000000000000000000000000000000000000000000000000000000005f52601160045260245ffd5b5f6146ed826140d9565b91506146f8836140d9565b9250828202614706816140d9565b9150828204841483151761471d5761471c6146b6565b5b5092915050565b7f4e487b71000000000000000000000000000000000000000000000000000000005f52601260045260245ffd5b5f61475b826140d9565b9150614766836140d9565b92508261477657614775614724565b5b828204905092915050565b5f61478b826140d9565b9150614796836140d9565b92508282039050818111156147ae576147ad6146b6565b5b92915050565b5f82825260208201905092915050565b7f526567697374726174696f6e20706572696f642068617320656e6465640000005f82015250565b5f6147f8601d836147b4565b9150614803826147c4565b602082019050919050565b5f6020820190508181035f830152614825816147ec565b9050919050565b7f456d7074792061727261790000000000000000000000000000000000000000005f82015250565b5f614860600b836147b4565b915061486b8261482c565b602082019050919050565b5f6020820190508181035f83015261488d81614854565b9050919050565b5f61489e826140d9565b91507fffffffffffffffffffffffffffffffffffffffffffffffffffffffffffffffff82036148d0576148cf6146b6565b5b600182019050919050565b7f4e487b71000000000000000000000000000000000000000000000000000000005f52603260045260245ffd5b5f81905092915050565b7f436f6e7472616374204465706c6f796d656e74000000000000000000000000005f82015250565b5f614946601383614908565b915061495182614912565b601382019050919050565b5f6149668261493a565b9150819050919050565b7f496e76616c696420696e707574000000000000000000000000000000000000005f82015250565b5f6149a4600d836147b4565b91506149af82614970565b602082019050919050565b5f6020820190508181035f8301526149d181614998565b9050919050565b7f44617070205573657273000000000000000000000000000000000000000000005f82015250565b5f614a0c600a83614908565b9150614a17826149d8565b600a82019050919050565b5f614a2c82614a00565b9150819050919050565b5f81519050614a44816140e2565b92915050565b5f60208284031215614a5f57614a5e6140d1565b5b5f614a6c84828501614a36565b91505092915050565b7f4e6f2062616c616e636520746f207769746864726177000000000000000000005f82015250565b5f614aa96016836147b4565b9150614ab482614a75565b602082019050919050565b5f6020820190508181035f830152614ad681614a9d565b9050919050565b7f436f6e747261637420697320696e20746573746e6574206d6f646500000000005f82015250565b5f614b11601b836147b4565b9150614b1c82614add565b602082019050919050565b5f6020820190508181035f830152614b3e81614b05565b9050919050565b7f556e617574686f72697a656400000000000000000000000000000000000000005f82015250565b5f614b79600c836147b4565b9150614b8482614b45565b602082019050919050565b5f6020820190508181035f830152614ba681614b6d565b9050919050565b5f614bb7826140d9565b9150614bc2836140d9565b9250828201905080821115614bda57614bd96146b6565b5b92915050565b5f81519050919050565b8281835e5f83830152505050565b5f614c0282614be0565b614c0c8185614908565b9350614c1c818560208601614bea565b80840191505092915050565b5f614c338284614bf8565b915081905092915050565b5f604082019050614c515f830185614167565b614c5e6020830184614217565b9392505050565b7f55736572206e6f7420656c696769626c650000000000000000000000000000005f82015250565b5f614c996011836147b4565b9150614ca482614c65565b602082019050919050565b5f6020820190508181035f830152614cc681614c8d565b9050919050565b7f416c726561647920636c61696d656400000000000000000000000000000000005f82015250565b5f614d01600f836147b4565b9150614d0c82614ccd565b602082019050919050565b5f6020820190508181035f830152614d2e81614cf5565b9050919050565b7f4578636565647320616c6c6f636174696f6e00000000000000000000000000005f82015250565b5f614d696012836147b4565b9150614d7482614d35565b602082019050919050565b5f6020820190508181035f830152614d9681614d5d565b9050919050565b7f436f6e7472616374204465706c6f796d656e7420526577617264202d20000000815250565b7f206d6f6e74687300000000000000000000000000000000000000000000000000815250565b5f614df382614d9d565b601d82019150614e038284614bf8565b9150614e0e82614dc3565b60078201915081905092915050565b7f44617070205573657220526577617264202d2000000000000000000000000000815250565b5f614e4d82614e1d565b601382019150614e5d8284614bf8565b9150614e6882614dc3565b60078201915081905092915050565b7f4e6f2075736572732072656769737465726564000000000000000000000000005f82015250565b5f614eab6013836147b4565b9150614eb682614e77565b602082019050919050565b5f6020820190508181035f830152614ed881614e9f565b9050919050565b7f42756720426f756e7479000000000000000000000000000000000000000000005f82015250565b5f614f13600a83614908565b9150614f1e82614edf565b600a82019050919050565b5f614f3382614f07565b9150819050919050565b5f81905092915050565b50565b5f614f555f83614f3d565b9150614f6082614f47565b5f82019050919050565b5f614f7482614f4a565b9150819050919050565b7f5472616e73666572206661696c656400000000000000000000000000000000005f82015250565b5f614fb2600f836147b4565b9150614fbd82614f7e565b602082019050919050565b5f6020820190508181035f830152614fdf81614fa6565b9050919050565b7f4e487b71000000000000000000000000000000000000000000000000000000005f52604160045260245ffdfea26469706673582212209e0eef250b441d1aa558a9a93cb60aca715c668c4a48ee48df55f621ccc7d28c64736f6c634300081c0033","linkReferences":{}},"methodIdentifiers":{"Autheo()":"b28f21b8","BUG_BOUNTY_ALLOCATION_PERCENTAGE()":"ec2d04a0","DAPP_REWARD_ALLOCATION_PERCENTAGE()":"3c356c6b","DEVELOPER_DEPLOYMENT_REWARD()":"c886f6f5","DEVELOPER_REWARD_ALLOCATION_PERCENTAGE()":"902f3564","HIGH_PERCENTAGE()":"e281b53d","LOW_PERCENTAGE()":"aa2ab446","MEDIUM_PERCENTAGE()":"1678c284","MONTHLY_DAPP_REWARD()":"d02be0a4","MONTHLY_UPTIME_BONUS()":"79e17154","allUsers(uint256)":"a2bdedf4","bugBountyCriticality(address,uint256)":"e5be0efb","calculateRemainingClaimedAmount()":"98e6d1ad","calculateRemainingContractDeploymentReward()":"20451e3b","calculateRemainingDappRewards()":"95ae36fc","claimPerContractDeployer()":"4b464f26","claimPerDappUser()":"d0f377a1","claimReward(bool,bool,bool)":"8845d4ca","contractDeployerCurrentId()":"b37e94d0","contractDeploymentRegistrationTime(address)":"7b28283c","dappUserCurrentId()":"e164b6a2","emergencyWithdraw(address)":"6ff1c9bc","getAllUsers()":"e2842d79","getBalance()":"12065fe0","getCurrentDeploymentMultiplier(address)":"d44f7540","getWhitelistedContractDeploymentUsers()":"33a9e0ec","getWhitelistedDappRewardUsers()":"b9ea367c","hasGoodUptime(address)":"51ec97f9","hasReward(address)":"f856f6ce","highBugBountyCurrentId()":"9fb1587d","highBugBountyUsers(uint256)":"9e805c82","highRewardPerUser()":"96e9427d","isAuthorized(address)":"fe9fbb80","isBugBountyUsersClaimed(address)":"e1053335","isContractDeploymentUsersClaimed(address)":"0a3290a4","isDappUsersClaimed(address)":"e934b0e3","isTestnet()":"92108c86","isWhitelistedContractDeploymentUsersForId(address,uint256)":"b79cbdec","isWhitelistedDappUsers(address)":"8b5b44a9","isWhitelistedDappUsersForId(address,uint256)":"c7368c23","iswhitelistedContractDeploymentUsers(address)":"66a8946b","iswhitelistedDappRewardUsers(address)":"259ce6bc","lastContractDeploymentClaim(address)":"dbcbd66d","lowBugBountyCurrentId()":"14a7bc79","lowBugBountyUsers(uint256)":"ee385a58","lowRewardPerUser()":"ab3002b5","mediumBugBountyCurrentId()":"fe78c9de","mediumBugBountyUsers(uint256)":"39570f84","mediumRewardPerUser()":"959e6a97","owner()":"8da5cb5b","pause()":"8456cb59","paused()":"5c975abb","registerContractDeploymentUsers(address[])":"4a7eaced","registerDappUsers(address[],bool[])":"6cd9996c","registerHighBugBountyUsers(address[])":"b1a2d027","registerLowBugBountyUsers(address[])":"5ed3aa9f","registerMediumBugBountyUsers(address[])":"b3328463","renounceOwnership()":"715018a6","setAuthorized(address,bool)":"711bf9b2","setClaimPerContractDeployer(uint256)":"1ed97009","setClaimPerDappUser(uint256)":"90182d0a","setTestnetStatus(bool)":"cb0c20c2","totalBugBountyRewardsClaimed()":"fc2bdb50","totalContractDeploymentClaimed()":"65e08b68","totalDappRewardsClaimed()":"16057b65","totalDappRewardsIds()":"e801dfb1","totalHighBugBountyUserNumber()":"5379a378","totalLowBugBountyUserNumber()":"dc9c8478","totalMediumBugBountyUserNumber()":"6e69396a","totalSupply()":"18160ddd","transferOwnership(address)":"f2fde38b","unpause()":"3f4ba83a","whitelistedContractDeploymentUsers(uint256)":"718bc02e","whitelistedDappRewardUsers(uint256)":"04b67d2e","withdraw()":"3ccfd60b"},"id":0}