{"abi":[{"type":"constructor","inputs":[],"stateMutability":"nonpayable"},{"type":"fallback","stateMutability":"payable"},{"type":"receive","stateMutability":"payable"},{"type":"function","name":"Autheo","inputs":[],"outputs":[{"name":"","type":"address","internalType":"contract IERC20"}],"stateMutability":"view"},{"type":"function","name":"BUG_BOUNTY_ALLOCATION_PERCENTAGE","inputs":[],"outputs":[{"name":"","type":"uint256","internalType":"uint256"}],"stateMutability":"view"},{"type":"function","name":"DAPP_REWARD_ALLOCATION_PERCENTAGE","inputs":[],"outputs":[{"name":"","type":"uint256","internalType":"uint256"}],"stateMutability":"view"},{"type":"function","name":"DEVELOPER_DEPLOYMENT_REWARD","inputs":[],"outputs":[{"name":"","type":"uint256","internalType":"uint256"}],"stateMutability":"view"},{"type":"function","name":"DEVELOPER_REWARD_ALLOCATION_PERCENTAGE","inputs":[],"outputs":[{"name":"","type":"uint256","internalType":"uint256"}],"stateMutability":"view"},{"type":"function","name":"HIGH_PERCENTAGE","inputs":[],"outputs":[{"name":"","type":"uint256","internalType":"uint256"}],"stateMutability":"view"},{"type":"function","name":"LOW_PERCENTAGE","inputs":[],"outputs":[{"name":"","type":"uint256","internalType":"uint256"}],"stateMutability":"view"},{"type":"function","name":"MEDIUM_PERCENTAGE","inputs":[],"outputs":[{"name":"","type":"uint256","internalType":"uint256"}],"stateMutability":"view"},{"type":"function","name":"MONTHLY_DAPP_REWARD","inputs":[],"outputs":[{"name":"","type":"uint256","internalType":"uint256"}],"stateMutability":"view"},{"type":"function","name":"MONTHLY_UPTIME_BONUS","inputs":[],"outputs":[{"name":"","type":"uint256","internalType":"uint256"}],"stateMutability":"view"},{"type":"function","name":"allUsers","inputs":[{"name":"","type":"uint256","internalType":"uint256"}],"outputs":[{"name":"","type":"address","internalType":"address"}],"stateMutability":"view"},{"type":"function","name":"bugBountyCriticality","inputs":[{"name":"","type":"address","internalType":"address"},{"name":"","type":"uint256","internalType":"uint256"}],"outputs":[{"name":"","type":"uint8","internalType":"enum AutheoRewardDistribution.BugCriticality"}],"stateMutability":"view"},{"type":"function","name":"calculateRemainingClaimedAmount","inputs":[],"outputs":[{"name":"","type":"uint256","internalType":"uint256"}],"stateMutability":"view"},{"type":"function","name":"calculateRemainingContractDeploymentReward","inputs":[],"outputs":[{"name":"","type":"uint256","internalType":"uint256"}],"stateMutability":"view"},{"type":"function","name":"calculateRemainingDappRewards","inputs":[],"outputs":[{"name":"","type":"uint256","internalType":"uint256"}],"stateMutability":"view"},{"type":"function","name":"claimPerContractDeployer","inputs":[],"outputs":[{"name":"","type":"uint256","internalType":"uint256"}],"stateMutability":"view"},{"type":"function","name":"claimPerDappUser","inputs":[],"outputs":[{"name":"","type":"uint256","internalType":"uint256"}],"stateMutability":"view"},{"type":"function","name":"claimReward","inputs":[{"name":"_contractDeploymentClaim","type":"bool","internalType":"bool"},{"name":"_dappUserClaim","type":"bool","internalType":"bool"},{"name":"_bugBountyClaim","type":"bool","internalType":"bool"}],"outputs":[],"stateMutability":"nonpayable"},{"type":"function","name":"contractDeployerCurrentId","inputs":[],"outputs":[{"name":"","type":"uint256","internalType":"uint256"}],"stateMutability":"view"},{"type":"function","name":"contractDeploymentRegistrationTime","inputs":[{"name":"","type":"address","internalType":"address"}],"outputs":[{"name":"","type":"uint256","internalType":"uint256"}],"stateMutability":"view"},{"type":"function","name":"dappUserCurrentId","inputs":[],"outputs":[{"name":"","type":"uint256","internalType":"uint256"}],"stateMutability":"view"},{"type":"function","name":"emergencyWithdraw","inputs":[{"name":"token","type":"address","internalType":"address"}],"outputs":[],"stateMutability":"nonpayable"},{"type":"function","name":"getAllUsers","inputs":[],"outputs":[{"name":"","type":"address[]","internalType":"address[]"}],"stateMutability":"view"},{"type":"function","name":"getBalance","inputs":[],"outputs":[{"name":"","type":"uint256","internalType":"uint256"}],"stateMutability":"view"},{"type":"function","name":"getCurrentDeploymentMultiplier","inputs":[{"name":"_user","type":"address","internalType":"address"}],"outputs":[{"name":"","type":"uint256","internalType":"uint256"}],"stateMutability":"view"},{"type":"function","name":"getWhitelistedContractDeploymentUsers","inputs":[],"outputs":[{"name":"","type":"address[]","internalType":"address[]"}],"stateMutability":"view"},{"type":"function","name":"getWhitelistedDappRewardUsers","inputs":[],"outputs":[{"name":"","type":"address[]","internalType":"address[]"}],"stateMutability":"view"},{"type":"function","name":"hasGoodUptime","inputs":[{"name":"","type":"address","internalType":"address"}],"outputs":[{"name":"","type":"bool","internalType":"bool"}],"stateMutability":"view"},{"type":"function","name":"hasReward","inputs":[{"name":"","type":"address","internalType":"address"}],"outputs":[{"name":"","type":"bool","internalType":"bool"}],"stateMutability":"view"},{"type":"function","name":"highBugBountyCurrentId","inputs":[],"outputs":[{"name":"","type":"uint256","internalType":"uint256"}],"stateMutability":"view"},{"type":"function","name":"highBugBountyUsers","inputs":[{"name":"","type":"uint256","internalType":"uint256"}],"outputs":[{"name":"","type":"address","internalType":"address"}],"stateMutability":"view"},{"type":"function","name":"highRewardPerUser","inputs":[],"outputs":[{"name":"","type":"uint256","internalType":"uint256"}],"stateMutability":"view"},{"type":"function","name":"isBugBountyUsersClaimed","inputs":[{"name":"","type":"address","internalType":"address"}],"outputs":[{"name":"","type":"bool","internalType":"bool"}],"stateMutability":"view"},{"type":"function","name":"isContractDeploymentUsersClaimed","inputs":[{"name":"","type":"address","internalType":"address"}],"outputs":[{"name":"","type":"bool","internalType":"bool"}],"stateMutability":"view"},{"type":"function","name":"isDappUsersClaimed","inputs":[{"name":"","type":"address","internalType":"address"}],"outputs":[{"name":"","type":"bool","internalType":"bool"}],"stateMutability":"view"},{"type":"function","name":"isTestnet","inputs":[],"outputs":[{"name":"","type":"bool","internalType":"bool"}],"stateMutability":"view"},{"type":"function","name":"isWhitelistedContractDeploymentUsersForId","inputs":[{"name":"","type":"address","internalType":"address"},{"name":"","type":"uint256","internalType":"uint256"}],"outputs":[{"name":"","type":"bool","internalType":"bool"}],"stateMutability":"view"},{"type":"function","name":"isWhitelistedDappUsers","inputs":[{"name":"","type":"address","internalType":"address"}],"outputs":[{"name":"","type":"bool","internalType":"bool"}],"stateMutability":"view"},{"type":"function","name":"isWhitelistedDappUsersForId","inputs":[{"name":"","type":"address","internalType":"address"},{"name":"","type":"uint256","internalType":"uint256"}],"outputs":[{"name":"","type":"bool","internalType":"bool"}],"stateMutability":"view"},{"type":"function","name":"iswhitelistedContractDeploymentUsers","inputs":[{"name":"","type":"address","internalType":"address"}],"outputs":[{"name":"","type":"bool","internalType":"bool"}],"stateMutability":"view"},{"type":"function","name":"iswhitelistedDappRewardUsers","inputs":[{"name":"","type":"address","internalType":"address"}],"outputs":[{"name":"","type":"bool","internalType":"bool"}],"stateMutability":"view"},{"type":"function","name":"lastContractDeploymentClaim","inputs":[{"name":"","type":"address","internalType":"address"}],"outputs":[{"name":"","type":"uint256","internalType":"uint256"}],"stateMutability":"view"},{"type":"function","name":"lowBugBountyCurrentId","inputs":[],"outputs":[{"name":"","type":"uint256","internalType":"uint256"}],"stateMutability":"view"},{"type":"function","name":"lowBugBountyUsers","inputs":[{"name":"","type":"uint256","internalType":"uint256"}],"outputs":[{"name":"","type":"address","internalType":"address"}],"stateMutability":"view"},{"type":"function","name":"lowRewardPerUser","inputs":[],"outputs":[{"name":"","type":"uint256","internalType":"uint256"}],"stateMutability":"view"},{"type":"function","name":"mediumBugBountyCurrentId","inputs":[],"outputs":[{"name":"","type":"uint256","internalType":"uint256"}],"stateMutability":"view"},{"type":"function","name":"mediumBugBountyUsers","inputs":[{"name":"","type":"uint256","internalType":"uint256"}],"outputs":[{"name":"","type":"address","internalType":"address"}],"stateMutability":"view"},{"type":"function","name":"mediumRewardPerUser","inputs":[],"outputs":[{"name":"","type":"uint256","internalType":"uint256"}],"stateMutability":"view"},{"type":"function","name":"owner","inputs":[],"outputs":[{"name":"","type":"address","internalType":"address"}],"stateMutability":"view"},{"type":"function","name":"pause","inputs":[],"outputs":[],"stateMutability":"nonpayable"},{"type":"function","name":"paused","inputs":[],"outputs":[{"name":"","type":"bool","internalType":"bool"}],"stateMutability":"view"},{"type":"function","name":"registerContractDeploymentUsers","inputs":[{"name":"_contractDeploymentUsers","type":"address[]","internalType":"address[]"}],"outputs":[],"stateMutability":"nonpayable"},{"type":"function","name":"registerDappUsers","inputs":[{"name":"_dappRewardsUsers","type":"address[]","internalType":"address[]"},{"name":"_userUptime","type":"bool[]","internalType":"bool[]"}],"outputs":[],"stateMutability":"nonpayable"},{"type":"function","name":"registerHighBugBountyUsers","inputs":[{"name":"_highBugBountyUsers","type":"address[]","internalType":"address[]"}],"outputs":[],"stateMutability":"nonpayable"},{"type":"function","name":"registerLowBugBountyUsers","inputs":[{"name":"_lowBugBountyUsers","type":"address[]","internalType":"address[]"}],"outputs":[],"stateMutability":"nonpayable"},{"type":"function","name":"registerMediumBugBountyUsers","inputs":[{"name":"_mediumBugBountyUsers","type":"address[]","internalType":"address[]"}],"outputs":[],"stateMutability":"nonpayable"},{"type":"function","name":"renounceOwnership","inputs":[],"outputs":[],"stateMutability":"nonpayable"},{"type":"function","name":"setClaimPerContractDeployer","inputs":[{"name":"_claimAmount","type":"uint256","internalType":"uint256"}],"outputs":[],"stateMutability":"nonpayable"},{"type":"function","name":"setClaimPerDappUser","inputs":[{"name":"_claimAmount","type":"uint256","internalType":"uint256"}],"outputs":[],"stateMutability":"nonpayable"},{"type":"function","name":"setTestnetStatus","inputs":[{"name":"_status","type":"bool","internalType":"bool"}],"outputs":[],"stateMutability":"nonpayable"},{"type":"function","name":"totalBugBountyRewardsClaimed","inputs":[],"outputs":[{"name":"","type":"uint256","internalType":"uint256"}],"stateMutability":"view"},{"type":"function","name":"totalContractDeploymentClaimed","inputs":[],"outputs":[{"name":"","type":"uint256","internalType":"uint256"}],"stateMutability":"view"},{"type":"function","name":"totalDappRewardsClaimed","inputs":[],"outputs":[{"name":"","type":"uint256","internalType":"uint256"}],"stateMutability":"view"},{"type":"function","name":"totalDappRewardsIds","inputs":[],"outputs":[{"name":"","type":"uint256","internalType":"uint256"}],"stateMutability":"view"},{"type":"function","name":"totalHighBugBountyUserNumber","inputs":[],"outputs":[{"name":"","type":"uint256","internalType":"uint256"}],"stateMutability":"view"},{"type":"function","name":"totalLowBugBountyUserNumber","inputs":[],"outputs":[{"name":"","type":"uint256","internalType":"uint256"}],"stateMutability":"view"},{"type":"function","name":"totalMediumBugBountyUserNumber","inputs":[],"outputs":[{"name":"","type":"uint256","internalType":"uint256"}],"stateMutability":"view"},{"type":"function","name":"totalSupply","inputs":[],"outputs":[{"name":"","type":"uint256","internalType":"uint256"}],"stateMutability":"view"},{"type":"function","name":"transferOwnership","inputs":[{"name":"newOwner","type":"address","internalType":"address"}],"outputs":[],"stateMutability":"nonpayable"},{"type":"function","name":"unpause","inputs":[],"outputs":[],"stateMutability":"nonpayable"},{"type":"function","name":"whitelistedContractDeploymentUsers","inputs":[{"name":"","type":"uint256","internalType":"uint256"}],"outputs":[{"name":"","type":"address","internalType":"address"}],"stateMutability":"view"},{"type":"function","name":"whitelistedDappRewardUsers","inputs":[{"name":"","type":"uint256","internalType":"uint256"}],"outputs":[{"name":"","type":"address","internalType":"address"}],"stateMutability":"view"},{"type":"function","name":"withdraw","inputs":[],"outputs":[],"stateMutability":"nonpayable"},{"type":"event","name":"ClaimAmountUpdated","inputs":[{"name":"newClaimedAmount","type":"uint256","indexed":false,"internalType":"uint256"}],"anonymous":false},{"type":"event","name":"Claimed","inputs":[{"name":"claimType","type":"string","indexed":false,"internalType":"string"},{"name":"user","type":"address","indexed":true,"internalType":"address"},{"name":"time","type":"uint256","indexed":false,"internalType":"uint256"}],"anonymous":false},{"type":"event","name":"EmergencyWithdraw","inputs":[{"name":"token","type":"address","indexed":false,"internalType":"address"},{"name":"amount","type":"uint256","indexed":false,"internalType":"uint256"}],"anonymous":false},{"type":"event","name":"OwnershipTransferred","inputs":[{"name":"previousOwner","type":"address","indexed":true,"internalType":"address"},{"name":"newOwner","type":"address","indexed":true,"internalType":"address"}],"anonymous":false},{"type":"event","name":"Paused","inputs":[{"name":"account","type":"address","indexed":false,"internalType":"address"}],"anonymous":false},{"type":"event","name":"Received","inputs":[{"name":"sender","type":"address","indexed":false,"internalType":"address"},{"name":"amount","type":"uint256","indexed":false,"internalType":"uint256"}],"anonymous":false},{"type":"event","name":"TestnetStatusUpdated","inputs":[{"name":"status","type":"bool","indexed":false,"internalType":"bool"}],"anonymous":false},{"type":"event","name":"Unpaused","inputs":[{"name":"account","type":"address","indexed":false,"internalType":"address"}],"anonymous":false},{"type":"event","name":"WhitelistUpdated","inputs":[{"name":"claimType","type":"string","indexed":false,"internalType":"string"},{"name":"user","type":"address","indexed":true,"internalType":"address"},{"name":"id","type":"uint256","indexed":false,"internalType":"uint256"}],"anonymous":false},{"type":"error","name":"EnforcedPause","inputs":[]},{"type":"error","name":"ExpectedPause","inputs":[]},{"type":"error","name":"OwnableInvalidOwner","inputs":[{"name":"owner","type":"address","internalType":"address"}]},{"type":"error","name":"OwnableUnauthorizedAccount","inputs":[{"name":"account","type":"address","internalType":"address"}]},{"type":"error","name":"ReentrancyGuardReentrantCall","inputs":[]},{"type":"error","name":"SafeERC20FailedOperation","inputs":[{"name":"token","type":"address","internalType":"address"}]},{"type":"error","name":"USER_HAS_NO_CLAIM","inputs":[{"name":"user","type":"address","internalType":"address"}]}],"bytecode":{"object":"0x610140604052670de0b6b3a764000060c09081525060c051611388610024919061022f565b60e09081525060c0516101f461003a919061022f565b6101009081525060c0516105dc610051919061022f565b61012090815250348015610063575f5ffd5b50335f73ffffffffffffffffffffffffffffffffffffffff168173ffffffffffffffffffffffffffffffffffffffff16036100d5575f6040517f1e4fbdf70000000000000000000000000000000000000000000000000000000081526004016100cc91906102af565b60405180910390fd5b6100e48161013860201b60201c565b50600180819055505f60025f6101000a81548160ff0219169083151502179055506a08af7623fb67bf1a80000060a081815250506001600260016101000a81548160ff0219169083151502179055506102c8565b5f5f5f9054906101000a900473ffffffffffffffffffffffffffffffffffffffff169050815f5f6101000a81548173ffffffffffffffffffffffffffffffffffffffff021916908373ffffffffffffffffffffffffffffffffffffffff1602179055508173ffffffffffffffffffffffffffffffffffffffff168173ffffffffffffffffffffffffffffffffffffffff167f8be0079c531659141344cd1fd0a4f28419497f9722a3daafe3b4186f6b6457e060405160405180910390a35050565b5f819050919050565b7f4e487b71000000000000000000000000000000000000000000000000000000005f52601160045260245ffd5b5f610239826101f9565b9150610244836101f9565b9250828202610252816101f9565b9150828204841483151761026957610268610202565b5b5092915050565b5f73ffffffffffffffffffffffffffffffffffffffff82169050919050565b5f61029982610270565b9050919050565b6102a98161028f565b82525050565b5f6020820190506102c25f8301846102a0565b92915050565b60805160a05160c05160e0516101005161012051615d4061034b5f395f8181612fbb01526137bc01525f81816123f70152613b3501525f818161303b0152613ab901525f50505f8181611213015281816112870152818161262d0152818161385b01528181613bd701528181613d6701526140a801525f612af70152615d405ff3fe608060405260043610610429575f3560e01c806392108c8611610228578063cb0c20c21161012d578063e2842d79116100b5578063ee385a5811610079578063ee385a58146110ac578063f2fde38b146110e8578063f856f6ce14611110578063fc2bdb501461114c578063fe78c9de1461117657610469565b8063e2842d7914610fb6578063e5be0efb14610fe0578063e801dfb11461101c578063e934b0e314611046578063ec2d04a01461108257610469565b8063dbcbd66d116100fc578063dbcbd66d14610ec0578063dc9c847814610efc578063e105333514610f26578063e164b6a214610f62578063e281b53d14610f8c57610469565b8063cb0c20c214610e08578063d02be0a414610e30578063d0f377a114610e5a578063d44f754014610e8457610469565b8063ab3002b5116101b0578063b37e94d01161017f578063b37e94d014610d12578063b79cbdec14610d3c578063b9ea367c14610d78578063c7368c2314610da2578063c886f6f514610dde57610469565b8063ab3002b514610c6e578063b1a2d02714610c98578063b28f21b814610cc0578063b332846314610cea57610469565b806398e6d1ad116101f757806398e6d1ad14610b785780639e805c8214610ba25780639fb1587d14610bde578063a2bdedf414610c08578063aa2ab44614610c4457610469565b806392108c8614610ad0578063959e6a9714610afa57806395ae36fc14610b2457806396e9427d14610b4e57610469565b80635379a3781161032e578063718bc02e116102b65780638845d4ca116102855780638845d4ca146109f05780638b5b44a914610a185780638da5cb5b14610a5457806390182d0a14610a7e578063902f356414610aa657610469565b8063718bc02e1461093857806379e17154146109745780637b28283c1461099e5780638456cb59146109da57610469565b806366a8946b116102fd57806366a8946b1461086c5780636cd9996c146108a85780636e69396a146108d05780636ff1c9bc146108fa578063715018a61461092257610469565b80635379a378146107c65780635c975abb146107f05780635ed3aa9f1461081a57806365e08b681461084257610469565b8063259ce6bc116103b15780633ccfd60b116103805780633ccfd60b1461070c5780633f4ba83a146107225780634a7eaced146107385780634b464f261461076057806351ec97f91461078a57610469565b8063259ce6bc1461064057806333a9e0ec1461067c57806339570f84146106a65780633c356c6b146106e257610469565b806316057b65116103f857806316057b65146105705780631678c2841461059a57806318160ddd146105c45780631ed97009146105ee57806320451e3b1461061657610469565b806304b67d2e146104a45780630a3290a4146104e057806312065fe01461051c57806314a7bc791461054657610469565b36610469577f88a5966d370b9919b20f3e2c13ff65706f196a4e32cc2c12bf57088f88525874333460405161045f929190614587565b60405180910390a1005b7f88a5966d370b9919b20f3e2c13ff65706f196a4e32cc2c12bf57088f88525874333460405161049a929190614587565b60405180910390a1005b3480156104af575f5ffd5b506104ca60048036038101906104c591906145e9565b6111a0565b6040516104d79190614614565b60405180910390f35b3480156104eb575f5ffd5b5061050660048036038101906105019190614657565b6111db565b604051610513919061469c565b60405180910390f35b348015610527575f5ffd5b506105306111f8565b60405161053d91906146b5565b60405180910390f35b348015610551575f5ffd5b5061055a6111ff565b60405161056791906146b5565b60405180910390f35b34801561057b575f5ffd5b50610584611205565b60405161059191906146b5565b60405180910390f35b3480156105a5575f5ffd5b506105ae61120b565b6040516105bb91906146b5565b60405180910390f35b3480156105cf575f5ffd5b506105d8611211565b6040516105e591906146b5565b60405180910390f35b3480156105f9575f5ffd5b50610614600480360381019061060f91906145e9565b611235565b005b348015610621575f5ffd5b5061062a61127e565b60405161063791906146b5565b60405180910390f35b34801561064b575f5ffd5b5061066660048036038101906106619190614657565b6112e3565b604051610673919061469c565b60405180910390f35b348015610687575f5ffd5b50610690611300565b60405161069d9190614785565b60405180910390f35b3480156106b1575f5ffd5b506106cc60048036038101906106c791906145e9565b61138b565b6040516106d99190614614565b60405180910390f35b3480156106ed575f5ffd5b506106f66113c6565b60405161070391906146b5565b60405180910390f35b348015610717575f5ffd5b506107206113cc565b005b34801561072d575f5ffd5b50610736611412565b005b348015610743575f5ffd5b5061075e600480360381019061075991906148f5565b611424565b005b34801561076b575f5ffd5b506107746118de565b60405161078191906146b5565b60405180910390f35b348015610795575f5ffd5b506107b060048036038101906107ab9190614657565b6118e4565b6040516107bd919061469c565b60405180910390f35b3480156107d1575f5ffd5b506107da611900565b6040516107e791906146b5565b60405180910390f35b3480156107fb575f5ffd5b50610804611906565b604051610811919061469c565b60405180910390f35b348015610825575f5ffd5b50610840600480360381019061083b91906148f5565b61191b565b005b34801561084d575f5ffd5b50610856611cd6565b60405161086391906146b5565b60405180910390f35b348015610877575f5ffd5b50610892600480360381019061088d9190614657565b611cdc565b60405161089f919061469c565b60405180910390f35b3480156108b3575f5ffd5b506108ce60048036038101906108c99190614a26565b611cf9565b005b3480156108db575f5ffd5b506108e461226d565b6040516108f191906146b5565b60405180910390f35b348015610905575f5ffd5b50610920600480360381019061091b9190614657565b612273565b005b34801561092d575f5ffd5b506109366123a7565b005b348015610943575f5ffd5b5061095e600480360381019061095991906145e9565b6123ba565b60405161096b9190614614565b60405180910390f35b34801561097f575f5ffd5b506109886123f5565b60405161099591906146b5565b60405180910390f35b3480156109a9575f5ffd5b506109c460048036038101906109bf9190614657565b612419565b6040516109d191906146b5565b60405180910390f35b3480156109e5575f5ffd5b506109ee61242e565b005b3480156109fb575f5ffd5b50610a166004803603810190610a119190614a9c565b612440565b005b348015610a23575f5ffd5b50610a3e6004803603810190610a399190614657565b612578565b604051610a4b919061469c565b60405180910390f35b348015610a5f575f5ffd5b50610a68612595565b604051610a759190614614565b60405180910390f35b348015610a89575f5ffd5b50610aa46004803603810190610a9f91906145e9565b6125bc565b005b348015610ab1575f5ffd5b50610aba612605565b604051610ac791906146b5565b60405180910390f35b348015610adb575f5ffd5b50610ae461260a565b604051610af1919061469c565b60405180910390f35b348015610b05575f5ffd5b50610b0e61261d565b604051610b1b91906146b5565b60405180910390f35b348015610b2f575f5ffd5b50610b38612623565b604051610b4591906146b5565b60405180910390f35b348015610b59575f5ffd5b50610b62612689565b604051610b6f91906146b5565b60405180910390f35b348015610b83575f5ffd5b50610b8c61268f565b604051610b9991906146b5565b60405180910390f35b348015610bad575f5ffd5b50610bc86004803603810190610bc391906145e9565b6126b2565b604051610bd59190614614565b60405180910390f35b348015610be9575f5ffd5b50610bf26126ed565b604051610bff91906146b5565b60405180910390f35b348015610c13575f5ffd5b50610c2e6004803603810190610c2991906145e9565b6126f3565b604051610c3b9190614614565b60405180910390f35b348015610c4f575f5ffd5b50610c5861272e565b604051610c6591906146b5565b60405180910390f35b348015610c79575f5ffd5b50610c82612734565b604051610c8f91906146b5565b60405180910390f35b348015610ca3575f5ffd5b50610cbe6004803603810190610cb991906148f5565b61273a565b005b348015610ccb575f5ffd5b50610cd4612af5565b604051610ce19190614b47565b60405180910390f35b348015610cf5575f5ffd5b50610d106004803603810190610d0b91906148f5565b612b19565b005b348015610d1d575f5ffd5b50610d26612ed4565b604051610d3391906146b5565b60405180910390f35b348015610d47575f5ffd5b50610d626004803603810190610d5d9190614b60565b612eda565b604051610d6f919061469c565b60405180910390f35b348015610d83575f5ffd5b50610d8c612f04565b604051610d999190614785565b60405180910390f35b348015610dad575f5ffd5b50610dc86004803603810190610dc39190614b60565b612f8f565b604051610dd5919061469c565b60405180910390f35b348015610de9575f5ffd5b50610df2612fb9565b604051610dff91906146b5565b60405180910390f35b348015610e13575f5ffd5b50610e2e6004803603810190610e299190614b9e565b612fdd565b005b348015610e3b575f5ffd5b50610e44613039565b604051610e5191906146b5565b60405180910390f35b348015610e65575f5ffd5b50610e6e61305d565b604051610e7b91906146b5565b60405180910390f35b348015610e8f575f5ffd5b50610eaa6004803603810190610ea59190614657565b613063565b604051610eb791906146b5565b60405180910390f35b348015610ecb575f5ffd5b50610ee66004803603810190610ee19190614657565b613140565b604051610ef391906146b5565b60405180910390f35b348015610f07575f5ffd5b50610f10613155565b604051610f1d91906146b5565b60405180910390f35b348015610f31575f5ffd5b50610f4c6004803603810190610f479190614657565b61315b565b604051610f59919061469c565b60405180910390f35b348015610f6d575f5ffd5b50610f76613178565b604051610f8391906146b5565b60405180910390f35b348015610f97575f5ffd5b50610fa061317e565b604051610fad91906146b5565b60405180910390f35b348015610fc1575f5ffd5b50610fca613184565b604051610fd79190614785565b60405180910390f35b348015610feb575f5ffd5b5061100660048036038101906110019190614b60565b61320f565b6040516110139190614c3c565b60405180910390f35b348015611027575f5ffd5b50611030613239565b60405161103d91906146b5565b60405180910390f35b348015611051575f5ffd5b5061106c60048036038101906110679190614657565b61323f565b604051611079919061469c565b60405180910390f35b34801561108d575f5ffd5b5061109661325c565b6040516110a391906146b5565b60405180910390f35b3480156110b7575f5ffd5b506110d260048036038101906110cd91906145e9565b613262565b6040516110df9190614614565b60405180910390f35b3480156110f3575f5ffd5b5061110e60048036038101906111099190614657565b61329d565b005b34801561111b575f5ffd5b5061113660048036038101906111319190614657565b613321565b604051611143919061469c565b60405180910390f35b348015611157575f5ffd5b5061116061333e565b60405161116d91906146b5565b60405180910390f35b348015611181575f5ffd5b5061118a613344565b60405161119791906146b5565b60405180910390f35b601381815481106111af575f80fd5b905f5260205f20015f915054906101000a900473ffffffffffffffffffffffffffffffffffffffff1681565b601c602052805f5260405f205f915054906101000a900460ff1681565b5f47905090565b60175481565b60065481565b610dac81565b7f000000000000000000000000000000000000000000000000000000000000000081565b61123d61334a565b806003819055507f6a856539d0c38e2d0062c02baf02b3d784e9de37335f10d75d5ed7e606c704568160405161127391906146b5565b60405180910390a150565b5f5f61271060c87f00000000000000000000000000000000000000000000000000000000000000006112b09190614c82565b6112ba9190614cf0565b905080600754106112ce575f9150506112e0565b600754816112dc9190614d20565b9150505b90565b6024602052805f5260405f205f915054906101000a900460ff1681565b6060601280548060200260200160405190810160405280929190818152602001828054801561138157602002820191905f5260205f20905b815f9054906101000a900473ffffffffffffffffffffffffffffffffffffffff1673ffffffffffffffffffffffffffffffffffffffff1681526020019060010190808311611338575b5050505050905090565b6010818154811061139a575f80fd5b905f5260205f20015f915054906101000a900473ffffffffffffffffffffffffffffffffffffffff1681565b61019081565b3373ffffffffffffffffffffffffffffffffffffffff166108fc4790811502906040515f60405180830381858888f1935050505015801561140f573d5f5f3e3d5ffd5b50565b61141a61334a565b6114226133d1565b565b61142c61334a565b600260019054906101000a900460ff1661147b576040517f08c379a000000000000000000000000000000000000000000000000000000000815260040161147290614dad565b60405180910390fd5b5f815190505f81116114c2576040517f08c379a00000000000000000000000000000000000000000000000000000000081526004016114b990614e3b565b60405180910390fd5b60165f8154809291906114d490614e59565b91905055505f5f90505b818110156118d9575f8382815181106114fa576114f9614ea0565b5b602002602001015190505f73ffffffffffffffffffffffffffffffffffffffff168173ffffffffffffffffffffffffffffffffffffffff1603611572576040517f08c379a000000000000000000000000000000000000000000000000000000000815260040161156990614f3d565b60405180910390fd5b601a5f8273ffffffffffffffffffffffffffffffffffffffff1673ffffffffffffffffffffffffffffffffffffffff1681526020019081526020015f205f60165481526020019081526020015f205f9054906101000a900460ff161561160d576040517f08c379a000000000000000000000000000000000000000000000000000000000815260040161160490614fcb565b60405180910390fd5b6001601a5f8373ffffffffffffffffffffffffffffffffffffffff1673ffffffffffffffffffffffffffffffffffffffff1681526020019081526020015f205f60165481526020019081526020015f205f6101000a81548160ff02191690831515021790555060235f8273ffffffffffffffffffffffffffffffffffffffff1673ffffffffffffffffffffffffffffffffffffffff1681526020019081526020015f205f9054906101000a900460ff1661177757601281908060018154018082558091505060019003905f5260205f20015f9091909190916101000a81548173ffffffffffffffffffffffffffffffffffffffff021916908373ffffffffffffffffffffffffffffffffffffffff160217905550600160235f8373ffffffffffffffffffffffffffffffffffffffff1673ffffffffffffffffffffffffffffffffffffffff1681526020019081526020015f205f6101000a81548160ff0219169083151502179055505b60225f8273ffffffffffffffffffffffffffffffffffffffff1673ffffffffffffffffffffffffffffffffffffffff1681526020019081526020015f205f9054906101000a900460ff1661187b57601481908060018154018082558091505060019003905f5260205f20015f9091909190916101000a81548173ffffffffffffffffffffffffffffffffffffffff021916908373ffffffffffffffffffffffffffffffffffffffff160217905550600160225f8373ffffffffffffffffffffffffffffffffffffffff1673ffffffffffffffffffffffffffffffffffffffff1681526020019081526020015f205f6101000a81548160ff0219169083151502179055505b8073ffffffffffffffffffffffffffffffffffffffff167f0cc74ec5a2170364c1023d7bf294fc7b106196a382ff3adc1a4335345de3087a6016546040516118c39190615033565b60405180910390a28180600101925050506114de565b505050565b60035481565b60208052805f5260405f205f915054906101000a900460ff1681565b600e5481565b5f60025f9054906101000a900460ff16905090565b61192361334a565b600260019054906101000a900460ff16611972576040517f08c379a000000000000000000000000000000000000000000000000000000000815260040161196990614dad565b60405180910390fd5b60175f81548092919061198490614e59565b91905055505f5f90505b8151811015611cd2575f8282815181106119ab576119aa614ea0565b5b602002602001015190505f73ffffffffffffffffffffffffffffffffffffffff168173ffffffffffffffffffffffffffffffffffffffff1603611a23576040517f08c379a0000000000000000000000000000000000000000000000000000000008152600401611a1a906150a9565b60405180910390fd5b5f6003811115611a3657611a35614bc9565b5b60215f8373ffffffffffffffffffffffffffffffffffffffff1673ffffffffffffffffffffffffffffffffffffffff1681526020019081526020015f205f60175481526020019081526020015f205f9054906101000a900460ff166003811115611aa357611aa2614bc9565b5b14611ae3576040517f08c379a0000000000000000000000000000000000000000000000000000000008152600401611ada90615137565b60405180910390fd5b600c5f815480929190611af590614e59565b919050555060225f8273ffffffffffffffffffffffffffffffffffffffff1673ffffffffffffffffffffffffffffffffffffffff1681526020019081526020015f205f9054906101000a900460ff16611ba957601481908060018154018082558091505060019003905f5260205f20015f9091909190916101000a81548173ffffffffffffffffffffffffffffffffffffffff021916908373ffffffffffffffffffffffffffffffffffffffff1602179055505b600160215f8373ffffffffffffffffffffffffffffffffffffffff1673ffffffffffffffffffffffffffffffffffffffff1681526020019081526020015f205f60175481526020019081526020015f205f6101000a81548160ff02191690836003811115611c1a57611c19614bc9565b5b0217905550600160225f8373ffffffffffffffffffffffffffffffffffffffff1673ffffffffffffffffffffffffffffffffffffffff1681526020019081526020015f205f6101000a81548160ff0219169083151502179055508073ffffffffffffffffffffffffffffffffffffffff167f0cc74ec5a2170364c1023d7bf294fc7b106196a382ff3adc1a4335345de3087a601754604051611cbc919061519f565b60405180910390a281806001019250505061198e565b5050565b60075481565b6023602052805f5260405f205f915054906101000a900460ff1681565b611d0161334a565b600260019054906101000a900460ff16611d50576040517f08c379a0000000000000000000000000000000000000000000000000000000008152600401611d4790614dad565b60405180910390fd5b5f8251905080825114611d98576040517f08c379a0000000000000000000000000000000000000000000000000000000008152600401611d8f90615215565b60405180910390fd5b5f8111611dda576040517f08c379a0000000000000000000000000000000000000000000000000000000008152600401611dd19061527d565b60405180910390fd5b60155f815480929190611dec90614e59565b91905055505f5f90505b81811015612267575f848281518110611e1257611e11614ea0565b5b602002602001015190505f73ffffffffffffffffffffffffffffffffffffffff168173ffffffffffffffffffffffffffffffffffffffff1603611e8a576040517f08c379a0000000000000000000000000000000000000000000000000000000008152600401611e81906152e5565b60405180910390fd5b601b5f8273ffffffffffffffffffffffffffffffffffffffff1673ffffffffffffffffffffffffffffffffffffffff1681526020019081526020015f205f60155481526020019081526020015f205f9054906101000a900460ff1615611f25576040517f08c379a0000000000000000000000000000000000000000000000000000000008152600401611f1c90615373565b60405180910390fd5b838281518110611f3857611f37614ea0565b5b602002602001015115611f9b57600160205f8373ffffffffffffffffffffffffffffffffffffffff1673ffffffffffffffffffffffffffffffffffffffff1681526020019081526020015f205f6101000a81548160ff0219169083151502179055505b6001601b5f8373ffffffffffffffffffffffffffffffffffffffff1673ffffffffffffffffffffffffffffffffffffffff1681526020019081526020015f205f60155481526020019081526020015f205f6101000a81548160ff02191690831515021790555060245f8273ffffffffffffffffffffffffffffffffffffffff1673ffffffffffffffffffffffffffffffffffffffff1681526020019081526020015f205f9054906101000a900460ff1661210557601381908060018154018082558091505060019003905f5260205f20015f9091909190916101000a81548173ffffffffffffffffffffffffffffffffffffffff021916908373ffffffffffffffffffffffffffffffffffffffff160217905550600160245f8373ffffffffffffffffffffffffffffffffffffffff1673ffffffffffffffffffffffffffffffffffffffff1681526020019081526020015f205f6101000a81548160ff0219169083151502179055505b60225f8273ffffffffffffffffffffffffffffffffffffffff1673ffffffffffffffffffffffffffffffffffffffff1681526020019081526020015f205f9054906101000a900460ff1661220957601481908060018154018082558091505060019003905f5260205f20015f9091909190916101000a81548173ffffffffffffffffffffffffffffffffffffffff021916908373ffffffffffffffffffffffffffffffffffffffff160217905550600160225f8373ffffffffffffffffffffffffffffffffffffffff1673ffffffffffffffffffffffffffffffffffffffff1681526020019081526020015f205f6101000a81548160ff0219169083151502179055505b8073ffffffffffffffffffffffffffffffffffffffff167f0cc74ec5a2170364c1023d7bf294fc7b106196a382ff3adc1a4335345de3087a60155460405161225191906153db565b60405180910390a2508080600101915050611df6565b50505050565b600d5481565b61227b61334a565b5f8173ffffffffffffffffffffffffffffffffffffffff166370a08231306040518263ffffffff1660e01b81526004016122b59190614614565b602060405180830381865afa1580156122d0573d5f5f3e3d5ffd5b505050506040513d601f19601f820116820180604052508101906122f4919061541b565b90505f8111612338576040517f08c379a000000000000000000000000000000000000000000000000000000000815260040161232f90615490565b60405180910390fd5b61236a612343612595565b828473ffffffffffffffffffffffffffffffffffffffff166134329092919063ffffffff16565b7f5fafa99d0643513820be26656b45130b01e1c03062e1266bf36f88cbd3bd9695828260405161239b929190614587565b60405180910390a15050565b6123af61334a565b6123b85f6134b1565b565b601281815481106123c9575f80fd5b905f5260205f20015f915054906101000a900473ffffffffffffffffffffffffffffffffffffffff1681565b7f000000000000000000000000000000000000000000000000000000000000000081565b6026602052805f5260405f205f915090505481565b61243661334a565b61243e613572565b565b6124486135d4565b61245061361a565b600260019054906101000a900460ff16156124a0576040517f08c379a0000000000000000000000000000000000000000000000000000000008152600401612497906154f8565b60405180910390fd5b600260019054906101000a900460ff16156124f0576040517f08c379a00000000000000000000000000000000000000000000000000000000081526004016124e790615586565b60405180910390fd5b8215612504576124ff3361365b565b61256b565b81156125185761251333613958565b61256a565b801561252c5761252733613cd4565b612569565b336040517fc5a3e2b50000000000000000000000000000000000000000000000000000000081526004016125609190614614565b60405180910390fd5b5b5b61257361417d565b505050565b601d602052805f5260405f205f915054906101000a900460ff1681565b5f5f5f9054906101000a900473ffffffffffffffffffffffffffffffffffffffff16905090565b6125c461334a565b806004819055507f6a856539d0c38e2d0062c02baf02b3d784e9de37335f10d75d5ed7e606c70456816040516125fa91906146b5565b60405180910390a150565b60c881565b600260019054906101000a900460ff1681565b60095481565b5f5f6127106101907f00000000000000000000000000000000000000000000000000000000000000006126569190614c82565b6126609190614cf0565b90508060065410612674575f915050612686565b600654816126829190614d20565b9150505b90565b600a5481565b5f600654600754600b546126a391906155a4565b6126ad91906155a4565b905090565b601181815481106126c1575f80fd5b905f5260205f20015f915054906101000a900473ffffffffffffffffffffffffffffffffffffffff1681565b60195481565b60148181548110612702575f80fd5b905f5260205f20015f915054906101000a900473ffffffffffffffffffffffffffffffffffffffff1681565b6101f481565b60085481565b61274261334a565b600260019054906101000a900460ff16612791576040517f08c379a000000000000000000000000000000000000000000000000000000000815260040161278890614dad565b60405180910390fd5b60195f8154809291906127a390614e59565b91905055505f5f90505b8151811015612af1575f8282815181106127ca576127c9614ea0565b5b602002602001015190505f73ffffffffffffffffffffffffffffffffffffffff168173ffffffffffffffffffffffffffffffffffffffff1603612842576040517f08c379a0000000000000000000000000000000000000000000000000000000008152600401612839906150a9565b60405180910390fd5b5f600381111561285557612854614bc9565b5b60215f8373ffffffffffffffffffffffffffffffffffffffff1673ffffffffffffffffffffffffffffffffffffffff1681526020019081526020015f205f60195481526020019081526020015f205f9054906101000a900460ff1660038111156128c2576128c1614bc9565b5b14612902576040517f08c379a00000000000000000000000000000000000000000000000000000000081526004016128f990615137565b60405180910390fd5b600e5f81548092919061291490614e59565b919050555060225f8273ffffffffffffffffffffffffffffffffffffffff1673ffffffffffffffffffffffffffffffffffffffff1681526020019081526020015f205f9054906101000a900460ff166129c857601481908060018154018082558091505060019003905f5260205f20015f9091909190916101000a81548173ffffffffffffffffffffffffffffffffffffffff021916908373ffffffffffffffffffffffffffffffffffffffff1602179055505b600360215f8373ffffffffffffffffffffffffffffffffffffffff1673ffffffffffffffffffffffffffffffffffffffff1681526020019081526020015f205f60195481526020019081526020015f205f6101000a81548160ff02191690836003811115612a3957612a38614bc9565b5b0217905550600160225f8373ffffffffffffffffffffffffffffffffffffffff1673ffffffffffffffffffffffffffffffffffffffff1681526020019081526020015f205f6101000a81548160ff0219169083151502179055508073ffffffffffffffffffffffffffffffffffffffff167f0cc74ec5a2170364c1023d7bf294fc7b106196a382ff3adc1a4335345de3087a601954604051612adb9190615621565b60405180910390a28180600101925050506127ad565b5050565b7f000000000000000000000000000000000000000000000000000000000000000081565b612b2161334a565b600260019054906101000a900460ff16612b70576040517f08c379a0000000000000000000000000000000000000000000000000000000008152600401612b6790614dad565b60405180910390fd5b60185f815480929190612b8290614e59565b91905055505f5f90505b8151811015612ed0575f828281518110612ba957612ba8614ea0565b5b602002602001015190505f73ffffffffffffffffffffffffffffffffffffffff168173ffffffffffffffffffffffffffffffffffffffff1603612c21576040517f08c379a0000000000000000000000000000000000000000000000000000000008152600401612c18906150a9565b60405180910390fd5b5f6003811115612c3457612c33614bc9565b5b60215f8373ffffffffffffffffffffffffffffffffffffffff1673ffffffffffffffffffffffffffffffffffffffff1681526020019081526020015f205f60185481526020019081526020015f205f9054906101000a900460ff166003811115612ca157612ca0614bc9565b5b14612ce1576040517f08c379a0000000000000000000000000000000000000000000000000000000008152600401612cd890615137565b60405180910390fd5b600d5f815480929190612cf390614e59565b919050555060225f8273ffffffffffffffffffffffffffffffffffffffff1673ffffffffffffffffffffffffffffffffffffffff1681526020019081526020015f205f9054906101000a900460ff16612da757601481908060018154018082558091505060019003905f5260205f20015f9091909190916101000a81548173ffffffffffffffffffffffffffffffffffffffff021916908373ffffffffffffffffffffffffffffffffffffffff1602179055505b600260215f8373ffffffffffffffffffffffffffffffffffffffff1673ffffffffffffffffffffffffffffffffffffffff1681526020019081526020015f205f60185481526020019081526020015f205f6101000a81548160ff02191690836003811115612e1857612e17614bc9565b5b0217905550600160225f8373ffffffffffffffffffffffffffffffffffffffff1673ffffffffffffffffffffffffffffffffffffffff1681526020019081526020015f205f6101000a81548160ff0219169083151502179055508073ffffffffffffffffffffffffffffffffffffffff167f0cc74ec5a2170364c1023d7bf294fc7b106196a382ff3adc1a4335345de3087a601854604051612eba9190615697565b60405180910390a2818060010192505050612b8c565b5050565b60165481565b601a602052815f5260405f20602052805f5260405f205f915091509054906101000a900460ff1681565b60606013805480602002602001604051908101604052809291908181526020018280548015612f8557602002820191905f5260205f20905b815f9054906101000a900473ffffffffffffffffffffffffffffffffffffffff1673ffffffffffffffffffffffffffffffffffffffff1681526020019060010190808311612f3c575b5050505050905090565b601b602052815f5260405f20602052805f5260405f205f915091509054906101000a900460ff1681565b7f000000000000000000000000000000000000000000000000000000000000000081565b612fe561334a565b80600260016101000a81548160ff0219169083151502179055507fae5a988c3bc84b0090fff2c3d9783c9669551640c8d8e2a35e181f9e773fd8e58160405161302e919061469c565b60405180910390a150565b7f000000000000000000000000000000000000000000000000000000000000000081565b60045481565b5f5f5f600190505b60165481116130f457601a5f8573ffffffffffffffffffffffffffffffffffffffff1673ffffffffffffffffffffffffffffffffffffffff1681526020019081526020015f205f8281526020019081526020015f205f9054906101000a900460ff16156130e15781806130dd90614e59565b9250505b80806130ec90614e59565b91505061306b565b505f8103613137576040517f08c379a000000000000000000000000000000000000000000000000000000000815260040161312e9061570d565b60405180910390fd5b80915050919050565b6025602052805f5260405f205f915090505481565b600c5481565b601f602052805f5260405f205f915054906101000a900460ff1681565b60155481565b61177081565b6060601480548060200260200160405190810160405280929190818152602001828054801561320557602002820191905f5260205f20905b815f9054906101000a900473ffffffffffffffffffffffffffffffffffffffff1673ffffffffffffffffffffffffffffffffffffffff16815260200190600101908083116131bc575b5050505050905090565b6021602052815f5260405f20602052805f5260405f205f915091509054906101000a900460ff1681565b60055481565b601e602052805f5260405f205f915054906101000a900460ff1681565b61177081565b600f8181548110613271575f80fd5b905f5260205f20015f915054906101000a900473ffffffffffffffffffffffffffffffffffffffff1681565b6132a561334a565b5f73ffffffffffffffffffffffffffffffffffffffff168173ffffffffffffffffffffffffffffffffffffffff1603613315575f6040517f1e4fbdf700000000000000000000000000000000000000000000000000000000815260040161330c9190614614565b60405180910390fd5b61331e816134b1565b50565b6022602052805f5260405f205f915054906101000a900460ff1681565b600b5481565b60185481565b613352614186565b73ffffffffffffffffffffffffffffffffffffffff16613370612595565b73ffffffffffffffffffffffffffffffffffffffff16146133cf57613393614186565b6040517f118cdaa70000000000000000000000000000000000000000000000000000000081526004016133c69190614614565b60405180910390fd5b565b6133d961418d565b5f60025f6101000a81548160ff0219169083151502179055507f5db9ee0a495bf2e6ff9c91a7834c1ba4fdd244a5e8aa4e537bd38aeae4b073aa61341b614186565b6040516134289190614614565b60405180910390a1565b6134ac838473ffffffffffffffffffffffffffffffffffffffff1663a9059cbb8585604051602401613465929190614587565b604051602081830303815290604052915060e01b6020820180517bffffffffffffffffffffffffffffffffffffffffffffffffffffffff83818316178352505050506141cd565b505050565b5f5f5f9054906101000a900473ffffffffffffffffffffffffffffffffffffffff169050815f5f6101000a81548173ffffffffffffffffffffffffffffffffffffffff021916908373ffffffffffffffffffffffffffffffffffffffff1602179055508173ffffffffffffffffffffffffffffffffffffffff168173ffffffffffffffffffffffffffffffffffffffff167f8be0079c531659141344cd1fd0a4f28419497f9722a3daafe3b4186f6b6457e060405160405180910390a35050565b61357a61361a565b600160025f6101000a81548160ff0219169083151502179055507f62e78cea01bee320cd4e420270b5ea74000d11b0c9f74754ebdbfc544b05a2586135bd614186565b6040516135ca9190614614565b60405180910390a1565b600260015403613610576040517f3ee5aeb500000000000000000000000000000000000000000000000000000000815260040160405180910390fd5b6002600181905550565b613622611906565b15613659576040517fd93c066500000000000000000000000000000000000000000000000000000000815260040160405180910390fd5b565b5f5f600190505b60165481116136eb57601a5f8473ffffffffffffffffffffffffffffffffffffffff1673ffffffffffffffffffffffffffffffffffffffff1681526020019081526020015f205f8281526020019081526020015f205f9054906101000a900460ff16156136d85781806136d490614e59565b9250505b80806136e390614e59565b915050613662565b505f810361372e576040517f08c379a00000000000000000000000000000000000000000000000000000000081526004016137259061570d565b60405180910390fd5b601c5f8373ffffffffffffffffffffffffffffffffffffffff1673ffffffffffffffffffffffffffffffffffffffff1681526020019081526020015f205f9054906101000a900460ff16156137b8576040517f08c379a00000000000000000000000000000000000000000000000000000000081526004016137af9061579b565b60405180910390fd5b5f817f00000000000000000000000000000000000000000000000000000000000000006137e59190614c82565b90506001601c5f8573ffffffffffffffffffffffffffffffffffffffff1673ffffffffffffffffffffffffffffffffffffffff1681526020019081526020015f205f6101000a81548160ff0219169083151502179055508060075f82825461384d91906155a4565b9250508190555061271060c87f00000000000000000000000000000000000000000000000000000000000000006138849190614c82565b61388e9190614cf0565b60075411156138d2576040517f08c379a00000000000000000000000000000000000000000000000000000000081526004016138c99061584f565b60405180910390fd5b6138dc8382614268565b8273ffffffffffffffffffffffffffffffffffffffff167f7ca58b3d3af286614421364e3dc07e3961a7ce97c19ab3be45fdc2ad13d0b97d61391d84614315565b60405160200161392d919061590b565b6040516020818303038152906040528360405161394b929190615977565b60405180910390a2505050565b5f5f600190505b60155481116139e857601b5f8473ffffffffffffffffffffffffffffffffffffffff1673ffffffffffffffffffffffffffffffffffffffff1681526020019081526020015f205f8281526020019081526020015f205f9054906101000a900460ff16156139d55781806139d190614e59565b9250505b80806139e090614e59565b91505061395f565b505f8103613a2b576040517f08c379a0000000000000000000000000000000000000000000000000000000008152600401613a229061570d565b60405180910390fd5b601e5f8373ffffffffffffffffffffffffffffffffffffffff1673ffffffffffffffffffffffffffffffffffffffff1681526020019081526020015f205f9054906101000a900460ff1615613ab5576040517f08c379a0000000000000000000000000000000000000000000000000000000008152600401613aac906159ef565b60405180910390fd5b5f817f0000000000000000000000000000000000000000000000000000000000000000613ae29190614c82565b905060205f8473ffffffffffffffffffffffffffffffffffffffff1673ffffffffffffffffffffffffffffffffffffffff1681526020019081526020015f205f9054906101000a900460ff1615613b62577f000000000000000000000000000000000000000000000000000000000000000081613b5f91906155a4565b90505b6001601e5f8573ffffffffffffffffffffffffffffffffffffffff1673ffffffffffffffffffffffffffffffffffffffff1681526020019081526020015f205f6101000a81548160ff0219169083151502179055508060065f828254613bc891906155a4565b925050819055506127106101907f0000000000000000000000000000000000000000000000000000000000000000613c009190614c82565b613c0a9190614cf0565b6006541115613c4e576040517f08c379a0000000000000000000000000000000000000000000000000000000008152600401613c4590615a7d565b60405180910390fd5b613c588382614268565b8273ffffffffffffffffffffffffffffffffffffffff167f7ca58b3d3af286614421364e3dc07e3961a7ce97c19ab3be45fdc2ad13d0b97d613c9984614315565b604051602001613ca99190615ac1565b60405160208183030381529060405283604051613cc7929190615977565b60405180910390a2505050565b601f5f8273ffffffffffffffffffffffffffffffffffffffff1673ffffffffffffffffffffffffffffffffffffffff1681526020019081526020015f205f9054906101000a900460ff1615613d5e576040517f08c379a0000000000000000000000000000000000000000000000000000000008152600401613d5590615b3f565b60405180910390fd5b5f6127106117707f0000000000000000000000000000000000000000000000000000000000000000613d909190614c82565b613d9a9190614cf0565b9050600c546127106101f483613db09190614c82565b613dba9190614cf0565b613dc49190614cf0565b600881905550600d54612710610dac83613dde9190614c82565b613de89190614cf0565b613df29190614cf0565b600981905550600e5461271061177083613e0c9190614c82565b613e169190614cf0565b613e209190614cf0565b600a819055505f806017541115613e375760175490505b806018541115613e475760185490505b806019541115613e575760195490505b5f5f600190505b828111614032575f5f905060016003811115613e7d57613e7c614bc9565b5b60215f8873ffffffffffffffffffffffffffffffffffffffff1673ffffffffffffffffffffffffffffffffffffffff1681526020019081526020015f205f8481526020019081526020015f205f9054906101000a900460ff166003811115613ee857613ee7614bc9565b5b03613ef7576008549050614010565b60026003811115613f0b57613f0a614bc9565b5b60215f8873ffffffffffffffffffffffffffffffffffffffff1673ffffffffffffffffffffffffffffffffffffffff1681526020019081526020015f205f8481526020019081526020015f205f9054906101000a900460ff166003811115613f7657613f75614bc9565b5b03613f8557600954905061400f565b600380811115613f9857613f97614bc9565b5b60215f8873ffffffffffffffffffffffffffffffffffffffff1673ffffffffffffffffffffffffffffffffffffffff1681526020019081526020015f205f8481526020019081526020015f205f9054906101000a900460ff16600381111561400357614002614bc9565b5b0361400e57600a5490505b5b5b808361401c91906155a4565b925050808061402a90614e59565b915050613e5e565b506001601f5f8673ffffffffffffffffffffffffffffffffffffffff1673ffffffffffffffffffffffffffffffffffffffff1681526020019081526020015f205f6101000a81548160ff02191690831515021790555080600b5f82825461409991906155a4565b925050819055506127106117707f00000000000000000000000000000000000000000000000000000000000000006140d19190614c82565b6140db9190614cf0565b600b54111561411f576040517f08c379a000000000000000000000000000000000000000000000000000000000815260040161411690615bcd565b60405180910390fd5b6141298482614268565b8373ffffffffffffffffffffffffffffffffffffffff167f7ca58b3d3af286614421364e3dc07e3961a7ce97c19ab3be45fdc2ad13d0b97d8260405161416f9190615c35565b60405180910390a250505050565b60018081905550565b5f33905090565b614195611906565b6141cb576040517f8dfc202b00000000000000000000000000000000000000000000000000000000815260040160405180910390fd5b565b5f5f60205f8451602086015f885af1806141ec576040513d5f823e3d81fd5b3d92505f519150505f8214614205576001811415614220565b5f8473ffffffffffffffffffffffffffffffffffffffff163b145b1561426257836040517f5274afe70000000000000000000000000000000000000000000000000000000081526004016142599190614614565b60405180910390fd5b50505050565b5f8273ffffffffffffffffffffffffffffffffffffffff168260405161428d90615c8e565b5f6040518083038185875af1925050503d805f81146142c7576040519150601f19603f3d011682016040523d82523d5f602084013e6142cc565b606091505b5050905080614310576040517f08c379a000000000000000000000000000000000000000000000000000000000815260040161430790615cec565b60405180910390fd5b505050565b60605f6001614323846143df565b0190505f8167ffffffffffffffff811115614341576143406147b9565b5b6040519080825280601f01601f1916602001820160405280156143735781602001600182028036833780820191505090505b5090505f82602001820190505b6001156143d4578080600190039150507f3031323334353637383961626364656600000000000000000000000000000000600a86061a8153600a85816143c9576143c8614cc3565b5b0494505f8503614380575b819350505050919050565b5f5f5f90507a184f03e93ff9f4daa797ed6e38ed64bf6a1f010000000000000000831061443b577a184f03e93ff9f4daa797ed6e38ed64bf6a1f010000000000000000838161443157614430614cc3565b5b0492506040810190505b6d04ee2d6d415b85acef81000000008310614478576d04ee2d6d415b85acef8100000000838161446e5761446d614cc3565b5b0492506020810190505b662386f26fc1000083106144a757662386f26fc10000838161449d5761449c614cc3565b5b0492506010810190505b6305f5e10083106144d0576305f5e10083816144c6576144c5614cc3565b5b0492506008810190505b61271083106144f55761271083816144eb576144ea614cc3565b5b0492506004810190505b60648310614518576064838161450e5761450d614cc3565b5b0492506002810190505b600a8310614527576001810190505b80915050919050565b5f73ffffffffffffffffffffffffffffffffffffffff82169050919050565b5f61455982614530565b9050919050565b6145698161454f565b82525050565b5f819050919050565b6145818161456f565b82525050565b5f60408201905061459a5f830185614560565b6145a76020830184614578565b9392505050565b5f604051905090565b5f5ffd5b5f5ffd5b6145c88161456f565b81146145d2575f5ffd5b50565b5f813590506145e3816145bf565b92915050565b5f602082840312156145fe576145fd6145b7565b5b5f61460b848285016145d5565b91505092915050565b5f6020820190506146275f830184614560565b92915050565b6146368161454f565b8114614640575f5ffd5b50565b5f813590506146518161462d565b92915050565b5f6020828403121561466c5761466b6145b7565b5b5f61467984828501614643565b91505092915050565b5f8115159050919050565b61469681614682565b82525050565b5f6020820190506146af5f83018461468d565b92915050565b5f6020820190506146c85f830184614578565b92915050565b5f81519050919050565b5f82825260208201905092915050565b5f819050602082019050919050565b6147008161454f565b82525050565b5f61471183836146f7565b60208301905092915050565b5f602082019050919050565b5f614733826146ce565b61473d81856146d8565b9350614748836146e8565b805f5b8381101561477857815161475f8882614706565b975061476a8361471d565b92505060018101905061474b565b5085935050505092915050565b5f6020820190508181035f83015261479d8184614729565b905092915050565b5f5ffd5b5f601f19601f8301169050919050565b7f4e487b71000000000000000000000000000000000000000000000000000000005f52604160045260245ffd5b6147ef826147a9565b810181811067ffffffffffffffff8211171561480e5761480d6147b9565b5b80604052505050565b5f6148206145ae565b905061482c82826147e6565b919050565b5f67ffffffffffffffff82111561484b5761484a6147b9565b5b602082029050602081019050919050565b5f5ffd5b5f61487261486d84614831565b614817565b905080838252602082019050602084028301858111156148955761489461485c565b5b835b818110156148be57806148aa8882614643565b845260208401935050602081019050614897565b5050509392505050565b5f82601f8301126148dc576148db6147a5565b5b81356148ec848260208601614860565b91505092915050565b5f6020828403121561490a576149096145b7565b5b5f82013567ffffffffffffffff811115614927576149266145bb565b5b614933848285016148c8565b91505092915050565b5f67ffffffffffffffff821115614956576149556147b9565b5b602082029050602081019050919050565b61497081614682565b811461497a575f5ffd5b50565b5f8135905061498b81614967565b92915050565b5f6149a361499e8461493c565b614817565b905080838252602082019050602084028301858111156149c6576149c561485c565b5b835b818110156149ef57806149db888261497d565b8452602084019350506020810190506149c8565b5050509392505050565b5f82601f830112614a0d57614a0c6147a5565b5b8135614a1d848260208601614991565b91505092915050565b5f5f60408385031215614a3c57614a3b6145b7565b5b5f83013567ffffffffffffffff811115614a5957614a586145bb565b5b614a65858286016148c8565b925050602083013567ffffffffffffffff811115614a8657614a856145bb565b5b614a92858286016149f9565b9150509250929050565b5f5f5f60608486031215614ab357614ab26145b7565b5b5f614ac08682870161497d565b9350506020614ad18682870161497d565b9250506040614ae28682870161497d565b9150509250925092565b5f819050919050565b5f614b0f614b0a614b0584614530565b614aec565b614530565b9050919050565b5f614b2082614af5565b9050919050565b5f614b3182614b16565b9050919050565b614b4181614b27565b82525050565b5f602082019050614b5a5f830184614b38565b92915050565b5f5f60408385031215614b7657614b756145b7565b5b5f614b8385828601614643565b9250506020614b94858286016145d5565b9150509250929050565b5f60208284031215614bb357614bb26145b7565b5b5f614bc08482850161497d565b91505092915050565b7f4e487b71000000000000000000000000000000000000000000000000000000005f52602160045260245ffd5b60048110614c0757614c06614bc9565b5b50565b5f819050614c1782614bf6565b919050565b5f614c2682614c0a565b9050919050565b614c3681614c1c565b82525050565b5f602082019050614c4f5f830184614c2d565b92915050565b7f4e487b71000000000000000000000000000000000000000000000000000000005f52601160045260245ffd5b5f614c8c8261456f565b9150614c978361456f565b9250828202614ca58161456f565b91508282048414831517614cbc57614cbb614c55565b5b5092915050565b7f4e487b71000000000000000000000000000000000000000000000000000000005f52601260045260245ffd5b5f614cfa8261456f565b9150614d058361456f565b925082614d1557614d14614cc3565b5b828204905092915050565b5f614d2a8261456f565b9150614d358361456f565b9250828203905081811115614d4d57614d4c614c55565b5b92915050565b5f82825260208201905092915050565b7f526567697374726174696f6e20706572696f642068617320656e6465640000005f82015250565b5f614d97601d83614d53565b9150614da282614d63565b602082019050919050565b5f6020820190508181035f830152614dc481614d8b565b9050919050565b7f456d70747920636f6e7472616374206465706c6f796d656e74207573657273205f8201527f6172726179000000000000000000000000000000000000000000000000000000602082015250565b5f614e25602583614d53565b9150614e3082614dcb565b604082019050919050565b5f6020820190508181035f830152614e5281614e19565b9050919050565b5f614e638261456f565b91507fffffffffffffffffffffffffffffffffffffffffffffffffffffffffffffffff8203614e9557614e94614c55565b5b600182019050919050565b7f4e487b71000000000000000000000000000000000000000000000000000000005f52603260045260245ffd5b7f496e76616c696420636f6e7472616374206465706c6f796d656e7420616464725f8201527f6573730000000000000000000000000000000000000000000000000000000000602082015250565b5f614f27602383614d53565b9150614f3282614ecd565b604082019050919050565b5f6020820190508181035f830152614f5481614f1b565b9050919050565b7f4164647265737320616c7265616479207265676973746572656420666f7220635f8201527f6f6e7472616374206465706c6f796d656e740000000000000000000000000000602082015250565b5f614fb5603283614d53565b9150614fc082614f5b565b604082019050919050565b5f6020820190508181035f830152614fe281614fa9565b9050919050565b7f436f6e7472616374204465706c6f796d656e74000000000000000000000000005f82015250565b5f61501d601383614d53565b915061502882614fe9565b602082019050919050565b5f6040820190508181035f83015261504a81615011565b90506150596020830184614578565b92915050565b7f496e76616c6964206164647265737300000000000000000000000000000000005f82015250565b5f615093600f83614d53565b915061509e8261505f565b602082019050919050565b5f6020820190508181035f8301526150c081615087565b9050919050565b7f5573657220616c72656164792061737369676e656420746f20612063726974695f8201527f63616c6974790000000000000000000000000000000000000000000000000000602082015250565b5f615121602683614d53565b915061512c826150c7565b604082019050919050565b5f6020820190508181035f83015261514e81615115565b9050919050565b7f4c6f772042756720426f756e74790000000000000000000000000000000000005f82015250565b5f615189600e83614d53565b915061519482615155565b602082019050919050565b5f6040820190508181035f8301526151b68161517d565b90506151c56020830184614578565b92915050565b7f5573657273206d75737420626520657175616c206c656e6774680000000000005f82015250565b5f6151ff601a83614d53565b915061520a826151cb565b602082019050919050565b5f6020820190508181035f83015261522c816151f3565b9050919050565b7f456d7074792064617070207265776172647320757365727320617272617900005f82015250565b5f615267601e83614d53565b915061527282615233565b602082019050919050565b5f6020820190508181035f8301526152948161525b565b9050919050565b7f496e76616c6964206461707020726577617264732061646472657373000000005f82015250565b5f6152cf601c83614d53565b91506152da8261529b565b602082019050919050565b5f6020820190508181035f8301526152fc816152c3565b9050919050565b7f4164647265737320616c7265616479207265676973746572656420666f7220745f8201527f68697320706572696f6400000000000000000000000000000000000000000000602082015250565b5f61535d602a83614d53565b915061536882615303565b604082019050919050565b5f6020820190508181035f83015261538a81615351565b9050919050565b7f44617070205573657273000000000000000000000000000000000000000000005f82015250565b5f6153c5600a83614d53565b91506153d082615391565b602082019050919050565b5f6040820190508181035f8301526153f2816153b9565b90506154016020830184614578565b92915050565b5f81519050615415816145bf565b92915050565b5f602082840312156154305761542f6145b7565b5b5f61543d84828501615407565b91505092915050565b7f4e6f2062616c616e636520746f207769746864726177000000000000000000005f82015250565b5f61547a601683614d53565b915061548582615446565b602082019050919050565b5f6020820190508181035f8301526154a78161546e565b9050919050565b7f436f6e747261637420697320696e20746573746e6574206d6f646500000000005f82015250565b5f6154e2601b83614d53565b91506154ed826154ae565b602082019050919050565b5f6020820190508181035f83015261550f816154d6565b9050919050565b7f436c61696d7320617265206f6e6c7920616c6c6f7765642061667465722074685f8201527f6520746573746e657420656e6473000000000000000000000000000000000000602082015250565b5f615570602e83614d53565b915061557b82615516565b604082019050919050565b5f6020820190508181035f83015261559d81615564565b9050919050565b5f6155ae8261456f565b91506155b98361456f565b92508282019050808211156155d1576155d0614c55565b5b92915050565b7f486967682042756720426f756e747900000000000000000000000000000000005f82015250565b5f61560b600f83614d53565b9150615616826155d7565b602082019050919050565b5f6040820190508181035f830152615638816155ff565b90506156476020830184614578565b92915050565b7f4d656469756d2042756720426f756e74790000000000000000000000000000005f82015250565b5f615681601183614d53565b915061568c8261564d565b602082019050919050565b5f6040820190508181035f8301526156ae81615675565b90506156bd6020830184614578565b92915050565b7f55736572206e6f7420656c696769626c650000000000000000000000000000005f82015250565b5f6156f7601183614d53565b9150615702826156c3565b602082019050919050565b5f6020820190508181035f830152615724816156eb565b9050919050565b7f557365722068617320616c726561647920636c61696d656420616363756d756c5f8201527f6174656420726577617264730000000000000000000000000000000000000000602082015250565b5f615785602c83614d53565b91506157908261572b565b604082019050919050565b5f6020820190508181035f8301526157b281615779565b9050919050565b7f65786365656420746f74616c2072657761726420616d6f756e7420616c6c6f635f8201527f6174656420746f20436f6e7472616374204465706c6f796d656e74207573657260208201527f7300000000000000000000000000000000000000000000000000000000000000604082015250565b5f615839604183614d53565b9150615844826157b9565b606082019050919050565b5f6020820190508181035f8301526158668161582d565b9050919050565b7f436f6e7472616374204465706c6f796d656e7420526577617264202d20000000815250565b5f81519050919050565b5f81905092915050565b8281835e5f83830152505050565b5f6158bf82615893565b6158c9818561589d565b93506158d98185602086016158a7565b80840191505092915050565b7f206d6f6e74687300000000000000000000000000000000000000000000000000815250565b5f6159158261586d565b601d8201915061592582846158b5565b9150615930826158e5565b60078201915081905092915050565b5f61594982615893565b6159538185614d53565b93506159638185602086016158a7565b61596c816147a9565b840191505092915050565b5f6040820190508181035f83015261598f818561593f565b905061599e6020830184614578565b9392505050565b7f5265776172647320616c726561647920636c61696d65640000000000000000005f82015250565b5f6159d9601783614d53565b91506159e4826159a5565b602082019050919050565b5f6020820190508181035f830152615a06816159cd565b9050919050565b7f65786365656420746f74616c2072657761726420616d6f756e7420616c6c6f635f8201527f6174656420746f20446170702075736572730000000000000000000000000000602082015250565b5f615a67603283614d53565b9150615a7282615a0d565b604082019050919050565b5f6020820190508181035f830152615a9481615a5b565b9050919050565b7f44617070205573657220526577617264202d2000000000000000000000000000815250565b5f615acb82615a9b565b601382019150615adb82846158b5565b9150615ae6826158e5565b60078201915081905092915050565b7f5573657220616c726561647920636c61696d65642072657761726473000000005f82015250565b5f615b29601c83614d53565b9150615b3482615af5565b602082019050919050565b5f6020820190508181035f830152615b5681615b1d565b9050919050565b7f65786365656420746f74616c2072657761726420616d6f756e7420616c6c6f635f8201527f6174656420746f2042756720426f756e74792075736572730000000000000000602082015250565b5f615bb7603883614d53565b9150615bc282615b5d565b604082019050919050565b5f6020820190508181035f830152615be481615bab565b9050919050565b7f42756720426f756e7479000000000000000000000000000000000000000000005f82015250565b5f615c1f600a83614d53565b9150615c2a82615beb565b602082019050919050565b5f6040820190508181035f830152615c4c81615c13565b9050615c5b6020830184614578565b92915050565b5f81905092915050565b50565b5f615c795f83615c61565b9150615c8482615c6b565b5f82019050919050565b5f615c9882615c6e565b9150819050919050565b7f5472616e73666572206661696c656400000000000000000000000000000000005f82015250565b5f615cd6600f83614d53565b9150615ce182615ca2565b602082019050919050565b5f6020820190508181035f830152615d0381615cca565b905091905056fea2646970667358221220967ed022412f62bac1a28ca8bceb145fc0163efef395d49d4c84f25ee0e3e6f864736f6c634300081c0033","linkReferences":{}},"methodIdentifiers":{"Autheo()":"b28f21b8","BUG_BOUNTY_ALLOCATION_PERCENTAGE()":"ec2d04a0","DAPP_REWARD_ALLOCATION_PERCENTAGE()":"3c356c6b","DEVELOPER_DEPLOYMENT_REWARD()":"c886f6f5","DEVELOPER_REWARD_ALLOCATION_PERCENTAGE()":"902f3564","HIGH_PERCENTAGE()":"e281b53d","LOW_PERCENTAGE()":"aa2ab446","MEDIUM_PERCENTAGE()":"1678c284","MONTHLY_DAPP_REWARD()":"d02be0a4","MONTHLY_UPTIME_BONUS()":"79e17154","allUsers(uint256)":"a2bdedf4","bugBountyCriticality(address,uint256)":"e5be0efb","calculateRemainingClaimedAmount()":"98e6d1ad","calculateRemainingContractDeploymentReward()":"20451e3b","calculateRemainingDappRewards()":"95ae36fc","claimPerContractDeployer()":"4b464f26","claimPerDappUser()":"d0f377a1","claimReward(bool,bool,bool)":"8845d4ca","contractDeployerCurrentId()":"b37e94d0","contractDeploymentRegistrationTime(address)":"7b28283c","dappUserCurrentId()":"e164b6a2","emergencyWithdraw(address)":"6ff1c9bc","getAllUsers()":"e2842d79","getBalance()":"12065fe0","getCurrentDeploymentMultiplier(address)":"d44f7540","getWhitelistedContractDeploymentUsers()":"33a9e0ec","getWhitelistedDappRewardUsers()":"b9ea367c","hasGoodUptime(address)":"51ec97f9","hasReward(address)":"f856f6ce","highBugBountyCurrentId()":"9fb1587d","highBugBountyUsers(uint256)":"9e805c82","highRewardPerUser()":"96e9427d","isBugBountyUsersClaimed(address)":"e1053335","isContractDeploymentUsersClaimed(address)":"0a3290a4","isDappUsersClaimed(address)":"e934b0e3","isTestnet()":"92108c86","isWhitelistedContractDeploymentUsersForId(address,uint256)":"b79cbdec","isWhitelistedDappUsers(address)":"8b5b44a9","isWhitelistedDappUsersForId(address,uint256)":"c7368c23","iswhitelistedContractDeploymentUsers(address)":"66a8946b","iswhitelistedDappRewardUsers(address)":"259ce6bc","lastContractDeploymentClaim(address)":"dbcbd66d","lowBugBountyCurrentId()":"14a7bc79","lowBugBountyUsers(uint256)":"ee385a58","lowRewardPerUser()":"ab3002b5","mediumBugBountyCurrentId()":"fe78c9de","mediumBugBountyUsers(uint256)":"39570f84","mediumRewardPerUser()":"959e6a97","owner()":"8da5cb5b","pause()":"8456cb59","paused()":"5c975abb","registerContractDeploymentUsers(address[])":"4a7eaced","registerDappUsers(address[],bool[])":"6cd9996c","registerHighBugBountyUsers(address[])":"b1a2d027","registerLowBugBountyUsers(address[])":"5ed3aa9f","registerMediumBugBountyUsers(address[])":"b3328463","renounceOwnership()":"715018a6","setClaimPerContractDeployer(uint256)":"1ed97009","setClaimPerDappUser(uint256)":"90182d0a","setTestnetStatus(bool)":"cb0c20c2","totalBugBountyRewardsClaimed()":"fc2bdb50","totalContractDeploymentClaimed()":"65e08b68","totalDappRewardsClaimed()":"16057b65","totalDappRewardsIds()":"e801dfb1","totalHighBugBountyUserNumber()":"5379a378","totalLowBugBountyUserNumber()":"dc9c8478","totalMediumBugBountyUserNumber()":"6e69396a","totalSupply()":"18160ddd","transferOwnership(address)":"f2fde38b","unpause()":"3f4ba83a","whitelistedContractDeploymentUsers(uint256)":"718bc02e","whitelistedDappRewardUsers(uint256)":"04b67d2e","withdraw()":"3ccfd60b"},"id":0}